:020000040800F2
:10000000800B002035020008F5340008F3300008AA
:10001000F13300081B1E00088F3E0008000000009E
:10002000000000000000000000000000B73B0008D6
:100030001D1E000800000000633A0008B93B0008DC
:100040004F0200084F0200084F0200084F0200084C
:100050004F0200084F0200084F0200084F0200083C
:100060004F0200084F0200084F0200084F0200082C
:100070004F0200084F0200084F0200084F0200081C
:100080004F0200084F0200084F0200084F0200080C
:100090004F0200084F0200084F0200084F020008FC
:1000A0004F0200084F0200084F0200084F020008EC
:1000B000413C00084F0200084F0200084F020008B0
:1000C0004F0200084F0200084F0200084F020008CC
:1000D0004F0200084F0200084F0200084F020008BC
:1000E0004F0200084F0200084F02000800F002F81B
:1000F00000F090F80AA090E8000C82448344AAF132
:100100000107DA4501D100F085F8AFF2090EBAE82F
:100110000F0013F0010F18BFFB1A43F0010318473B
:1001200084740000A4740000103A24BF78C878C119
:10013000FAD8520724BF30C830C144BF04680C60ED
:10014000704700000023002400250026103A28BF35
:1001500078C1FBD8520728BF30C148BF0B60704739
:100160006E2900F0B182702900F0F383662905F052
:100170009381652905F09081672905F08D816129BA
:1001800005F08C8103681B0A28BF41F080016929B2
:1001900000F05E82642900F05B82752900F05882CD
:1001A0006F2900F08083782900F0BF83E92900F0EF
:1001B0001B83E42900F01883F52900F01583EF294B
:1001C00000F07D83F82900F0BE830368DB0928BFB7
:1001D00041F08001632901F01D81732901F0228122
:1001E000E32901F02D81F32901F0328100207047CD
:1001F0001FB501F083F904000020002104F0B6FDD2
:10020000401C60600020002104F09AFDE0601FBDEA
:1002100010B510BD01F044F91146FFF7E9FF03F0F6
:1002200091FF01F021FA03B4FFF7F2FF03BC01F0E4
:1002300025FA00000948804709480047FEE7FEE725
:10024000FEE7FEE7FEE7FEE7FEE7FEE7FEE7FEE786
:1002500004480549054A064B704700003D3C00082C
:10026000ED00000880050020800B002080070020A2
:10027000800700201CB50C46064B7B446946009065
:10028000204600F03AFA04460020694600F048FA99
:1002900020461CBDA304000010B5203AC0F00B801E
:1002A000B1E81850203AA0E81850B1E81850A0E87A
:1002B0001850BFF4F5AF5FEA027C24BFB1E81850D4
:1002C000A0E8185044BF18C918C0BDE810405FEA44
:1002D000827C24BF51F8043B40F8043B08BF7047C0
:1002E000D20728BF31F8023B48BF11F8012B28BFC5
:1002F00020F8023B48BF00F8012B70474FF0000286
:1003000000B5134694469646203922BFA0E80C500B
:10031000A0E80C50B1F12001BFF4F7AF090728BFE6
:10032000A0E80C5048BF0CC05DF804EB890028BF62
:1003300040F8042B08BF704748BF20F8022B11F08B
:10034000804F18BF00F8012B704700004FF0013CB0
:1003500050F8042B51F8043B9A4221D1A2EB0C0334
:10036000934313EACC1317D150F8042B51F8043BF4
:100370009A4215D1A2EB0C03934313EACC130BD191
:1003800050F8042B51F8043B9A4209D1A2EB0C031C
:10039000934313EACC13DBD04FF00000704700BF4B
:1003A000D01A01BAB1FA81F101F0180122FA01F074
:1003B000CB40C1F12001DBB2C0B2C01A2CFA01F36C
:1003C000D11A914311EAC311E6D17047014900F0F7
:1003D0008FBB0000F004002010B503681C1404EB70
:1003E00021449BB289B2194494FBF2F302FB1343FC
:1003F00094FBF2F401EB034393FBF2F102FB1131A6
:1004000093FBF2F301E05B1E11440029FBDB01606A
:1004100003EB044010BDF0B504464FF0FF3585B046
:100420000068049060680290A0680390E068019002
:1004300020690090666906F18040B0F1004F7CD8D9
:100440003C22002104A8FFF7C7FF3C22014602A876
:10045000FFF7C2FF1822014603A8FFF7BDFF411EA8
:1004600040F2B55201A8FFF7B7FF0C2207466846D5
:100470000021FFF7B1FF414B00EB8700304400261D
:100480007B4411E0511A01910099491C0229009105
:1004900002D00C2908D105E0810705D00199491C3B
:1004A000019101E0401C00960099019A595C91422B
:1004B000E8DD0099012906D11C2A04D1810702D068
:1004C0000221CDE90016A0F146018B293CD2DDE9DD
:1004D0000061002202E09F5C521C3944B242FADB08
:1004E000012E02DD820700D0491E40F2B55340F2D2
:1004F0006D16C21700EB927292105A4300F003037C
:1005000003FB062283070A4400D1521E039E02EB1E
:100510004203049F06EBC303029EC3EB031306EBE7
:100520008303174E33441E149BB2C6EB0616C3EB6F
:100530000313B60007EB830300E005E006EB134668
:1005400066F31F43360C02D0284605B0F0BD80C4C8
:10055000029E40C4039E40C4019E761C44F80C6B6E
:10056000009E44E902600720521C92FBF0F600FB5B
:10057000162084E823001846E7E7000059700000C1
:10058000A039CEFD70477047704770B50446856945
:100590000068C10601D5302600E02026C00707D03C
:1005A00070BDD4E9012130469047206A401C20628A
:1005B0006D1EF6D570BD70B5044685690078C0071C
:1005C00007D170BDD4E9012120209047206A401C4A
:1005D00020626D1EF6D570BD09684A0501D540B28E
:1005E0007047C905FCD500B2704709684A0501D5B6
:1005F000C0B27047C905FCD580B2704770B50C46D3
:100600000546012A05D02878800600D5EA6900232E
:1006100002E0012305E05B1C934202D2E05C00286B
:10062000F9D1A869E618C01AA861286A1844286296
:100630002846FFF7AAFF04E0D5E9012114F8010BD1
:100640009047B442F8D32846FFF7B5FF70BD0000CD
:100650002DE9F0410646002410687529314616A59B
:1006600010D0FFF7B9FF002802DA404213A507E0D7
:1006700031688A0701D512A502E0490704D511A502
:10068000012401E0FFF7B1FF00210A2206F124074F
:1006900009E0B0FBF2FCB0FBF2F302FB1C003030CF
:1006A00078541846491C0028F3D123462A46304680
:1006B000BDE8F04100F0BDBA000000002D000000D0
:1006C0002B0000002000000011680268006A53053A
:1006D00001D508700AE0D30501D5088006E01306AD
:1006E00003D5C217C1E9000200E00860012070478D
:1006F00001694A1C02610878704700B58FB0CDE9E6
:1007000001310021059105497944CDE903101146D5
:10071000684600F029F90FB000BD0000E5FFFFFFBB
:100720000A6802F8010B0A60704700002DE9FF5FBC
:1007300015468A460446DFF8AC80F8440027D8E91D
:1007400000103E46CDE9001010E03AF816106A4657
:1007500002A800F081FE411C07D02178890603D54C
:10076000E269391891420DD80744761C207880063A
:1007700002D5E069B84205DDAE42E6DB3AF8160084
:100780000028E2D1A069C01BA0612046FFF7FDFE52
:10079000D8E90010CDE90010002017E03AF8181051
:1007A0006A4602A800F058FEB0F1FF3F81460BD028
:1007B00000250DF1080B05E0D4E901211BF8050027
:1007C00090476D1C4D45F7D308F10100B0428046BB
:1007D000E4DB206A384420622046FFF7ECFEBDE8E7
:1007E000FF9F00005E6D00002DE9F0418046D21DA4
:1007F00022F007020025D2E90002F52915A614D03F
:10080000011E72F1000106DA0023D0EB030063EB56
:10081000020211A608E0D8F800108B0701D50FA638
:1008200002E0490701D50EA601251146002408F172
:10083000240704E000F0B8F930323A55641C50EA5D
:100840000102F7D12B46324621464046BDE8F04131
:1008500000F0EFB9000000002D0000002B000000A8
:100860002000000030B4002100F1240408E002F070
:100870000705D208303542EA4372DB086554491C4B
:1008800052EA0305F3D10468002310A2250707D517
:10089000A40600D421B1C46901230DA2641EC46161
:1008A00030BC00F0C6B910B5044621461068FFF709
:1008B0009CFE02462046BDE810400023D2E7D21D30
:1008C00022F00701D1E90023CCE70000000000007E
:1008D00030000000F0B40D460188090502D5214C16
:1008E0007C4402E01F4C7C440E34002100F12406BD
:1008F00008E002F00F071209E75D42EA03721B09E4
:100900007754491C52EA0307F3D1027800231207F7
:1009100004D5702D06D009B1022311342246F0BC53
:1009200000F087B901231034F8E770B504460D468E
:1009300021461068FFF759FE024629462046BDE8C9
:1009400070400023C6E7D21D22F00703D3E900233D
:10095000C0E70368126843F0200303600823C36103
:100960000023B7E7C06B00002DE9F05F894604461D
:100970004FF0000ADFF874B1FB44C0F820A0204615
:10098000E1688847002874D0252806D0D4E90121E1
:100990009047206A401C2062F1E700265F4620460F
:1009A000E16888472028054607DB312D05D27819F4
:1009B00010F8200C08B10643F1E7B00701D526F086
:1009C0000406C4F81CA00027C4F818A02A2D09D0DA
:1009D000284603F081FA38B304EB8708303DC8F8A5
:1009E000185019E059F8041B204604EB8702916166
:1009F000E1688847012F054618D1E069002820DA10
:100A000026F020061DE0D8F8180000EB800005EB6A
:100A100040003038C8F818002046E168884705468D
:100A200003F05AFA0028EED1012F0AD02E2D08D15A
:100A30002046E16888477F1C0546022F46F02006C5
:100A4000C4DBA069002803DA404246F00106A06139
:100A5000F00701D026F010066C2D0BD0682D09D0C0
:100A60004C2D39D06A2D35D0742D35D07A2D33D018
:100A700016E038E0E1682F4620468847B842054630
:100A800009D16C2F26D04FF48060E16806432046E0
:100A90008847054604E06C2F1AD04FF48070064357
:100AA0000DB3A5F14100192802D8203546F400669F
:100AB0004A462946204626604E46FFF751FB80B144
:100AC00001280BD0F61D26F0070000F1080956E7B3
:100AD0004020E4E78020D8E70020D6E706F10409AB
:100AE0004DE7284652E7206ABDE8F09F506B0000B2
:100AF00070B50C46016800204A1C3ED03C22B1FB78
:100B0000F2F302FB1313B1FBF2F12360B1FBF2F33A
:100B100002FB1313B1FBF2F118226360B1FBF2F395
:100B200002FB1313B1FBF2F146F2E0320A44072153
:100B3000A360B2FBF1F301FB132140F2B553B2FB0A
:100B4000F3F5A161B2FBF3F103FB15228900B2F5C5
:100B5000B77F08D39B10521EB2FBF3F52944B2FBBA
:100B6000F3F503FB15220F4BE261616189077B44BA
:100B70000CD03B2A0AD3521C08E02C212046FFF758
:100B8000BDFB0120E0600AE0521A401C195C914252
:100B9000FAD9521CC4E903204FF0FF3020622046EE
:100BA00070BD00006B69000030B5B0F10A024FEA79
:100BB000900E71F100034EEA817EB0EB0E0061EB06
:100BC00091014FEA101E4EEA017E10EB0E0041EB40
:100BD00011114FEA102E4EEA016E10EB0E0041EBA0
:100BE00011214FEA104E4EEA014E10EB0E0041EB80
:100BF0001141401841F100014FEAD00040EA417034
:100C00004FEAD10110EB80054FEA810444EA907469
:100C100044EB01046D1944EB0404521BA3414FF053
:100C2000000348BF0A3200D530BD401C41F100012D
:100C300030BD2DE9F0470D4699469246044600F135
:100C400024080168880604D5E06921F010012160BC
:100C500000E00120A84201DD471B00E00027A16958
:100C60007A1902EB0900081AA0612078C00602D4A4
:100C70002046FFF78AFC002608E0D4E901211AF893
:100C800006009047206A401C761C20624E45F4DB2B
:100C90002078C0060AD52046FFF777FC06E0D4E9A5
:100CA000012130209047206A401C2062381EA7F1A5
:100CB0000107F4DC07E0D4E9012118F805009047AA
:100CC000206A401C2062281EA5F10105F3DC2046A5
:100CD000FFF771FC2078000602D50220BDE8F087FE
:100CE0000120FBE770472DE9FF4F0C461E464FF0F1
:100CF000FF378BB0D2E90001DDF860800A908A46A8
:100D0000C1F30A5505B93D46002108464FF00000E1
:100D1000BAF1000F00F4400005DA00EB80004FF458
:100D2000400101EA50004FEA9059B9F1010F00DD8E
:100D3000B9460A9850EA4A000ED044F61050A5F27F
:100D4000FF3545432F14B8F1000F1ED07542291E00
:100D50001EDDC9F100021CE0B8F1010F4FF00000E8
:100D600001D0302103E0F24305E02154401CB042A1
:100D7000FBDB30460022002121540B99C1F808808A
:100D8000C1E900200FB0BDE8F08FBD1B6D1CDEE790
:100D90004A4600DA694206A800F0F4FB06AB93E885
:100DA000070003AB83E8070050460A9900F06DFC8A
:100DB0008DE80700A0F500501F3800900398002D23
:100DC0000ADD42F21F014A460844002303A90390AA
:100DD000684600F0D6FE09E0A0F500504A461F38EC
:100DE000002303A90390684600F0E0FE8DE80700A9
:100DF0000004000C03D04FF0FF30410800E0104623
:100E0000B8F1000F03D00022009215461EE0751EB7
:100E100005D4FFF7C9FE303262556D1EF9D5B346D1
:100E20000122084302D000227F1C04E020783028F1
:100E300001D100227F1E002A099784D01DE0112DC8
:100E400007DAFFF7B1FE303262556D1C50EA01023D
:100E5000F5D1084302D00098C8B10EE00021681E09
:100E600005E0235C625C63542254401E491C8142AD
:100E7000F7DBAB46A81B401E0990002004F80B00CE
:100E80000B98099AC0F80880C0E9002B7AE7112670
:100E90004FF0000857E72DE9F04F88460446D21D71
:100EA00022F0070191B0D1E90001CDE90A0102F079
:100EB000EFFF02460B98C00F01D02D2007E02068FD
:100EC000810701D52B2002E0202101EAC000032A7E
:100ED000099001D0072A05DB03464146204600F071
:100EE00011FB0BE12078800601D5E06900E00620C7
:100EF000B8F1650F814606D0B8F1660F18D0B8F189
:100F0000670F70D131E00020B9F1110F009001DBC3
:100F1000112301E009F101030AAA01A90CA8FFF7B6
:100F2000E2FEDDE90C70002609F10105834647E089
:100F300001204B4600904FF000470AAA01A90CA8D7
:100F4000FFF7D1FEDDE90DB00C995D46002610B922
:100F500009F101000D18B9EB050003D4C0F1FF360B
:100F600009F10105A5EB09002BE0B9F1010F01DA48
:100F70004FF001090020B9F1110F0090484601DD42
:100F8000112300E003460AAA01A90CA8FFF7ABFE53
:100F9000DDE90C704D4600268346207800070AD410
:100FA000AB4500DA5D4601A8012D04DD411911F8B9
:100FB000011C302907D04F4502DA17F1040F04DA7B
:100FC000012082460FE06D1EEEE7002F02DCED1BD4
:100FD0003E4403E0781CA84200DD7D1CB81B00F1F4
:100FE000010A4FF000472078000703D4AA4501DB2F
:100FF0004FF0FF3A0021B7F1004F0DF143088DF893
:10100000431024D002202B23002F01DA7F422D230E
:101010000A21021EA0F1010000DC5FB197FBF1FC88
:1010200097FBF1F201FB1C7C17460CF1300C08F821
:1010300001CDEEE7A8F1010003702188090501D573
:10104000452100E06521A0F1010800F8011C099884
:101050000FA9A1EB0807FF1D00B10120411901EB09
:10106000EA70A1693844081A401EA0612078C006C1
:1010700002D42046FFF789FA099828B1D4E9012162
:101080009047206A401C20622078C00622D5204666
:10109000FFF77BFA1EE0002E04DBB34502DD01A85A
:1010A000805D00E03020D4E901219047206A401C97
:1010B0002062761CAAF101005FEA000A0AD100F062
:1010C0001DFAC0680168405CD4E901219047206A9C
:1010D000401C2062281EA5F10105DCDC07E0D4E9F4
:1010E000012118F8010B9047206A401C2062381E2D
:1010F000A7F10107F3DC2046FFF75DFA032011B0EA
:1011000041E600002DE9F04F04460D46D21D22F0C5
:10111000070089B0D0E900974846394602F0B8FE8A
:101120000246F80F01D02D2307E02068810701D582
:101130002B2302E0202101EAC0038DF820300BB1FF
:10114000012000E00020032A824601D0072A04DBA8
:101150002946204600F0D6F93FE12078800601D4E8
:101160000D2500E0E569C7F30A560D2D49DA002187
:101170004FEA175B08464FF00000002F00F44000D4
:1011800007DA00EB80004FF4400100EBD07001EA79
:1011900060008115012901DD4FF0FF3100224FEA87
:1011A000850CBCF1180F06D31346ACF118004FF0B4
:1011B0008052C24003E04FF4801323FA0CF30CF189
:1011C0000C0CBCF1200F04D3ACF1200C09FA0CF08C
:1011D00001E007FA0CF000294FF0004801DD18B9D2
:1011E0000FE00ED140450CD319EB02095F4121B944
:1011F000404502D19F4329EA0209BBEB175F00D0AB
:10120000761C2088000502D57B48784402E07A48A5
:101210007844193808AA302302F80A30037C0AF10E
:101220000101002E0AF1020A53546A4602DC4FF013
:10123000300101E04FF031014FF001088DF800104E
:1012400002D0A6F2FF3603E059EA470100D06B4E08
:10125000002D02DC2178090704D54FF002082E2169
:101260008DF80110C44600210BE0C7F303433F0192
:10127000C35C491C6D1E02F80830052908F10108FD
:1012800001DA002DF1DC00210CE000EB1973491CA0
:101290001B786D1E082902F808304FEA091908F179
:1012A000010801DA002DF0DC21688B0602D516E07A
:1012B000A8F10108E04505DD02EB080313F8013C45
:1012C000302BF5D0B8F1000F09DD02EB080313F85D
:1012D000013C2E2B03D1090701D4A8F10108002DF0
:1012E00005DD3E2102F808106D1E08F10108407C62
:1012F000002E02F8080008F1010804DA2D207642D9
:1013000002F8080002E02B2002F808000A214FF43E
:101310007A70864208F101080BDB96FBF0F330335C
:1013200002F8083096FBF0F308F1010800FB1366A1
:1013300001E0642E0CDB642096FBF0F3303302F8FE
:10134000083096FBF0F308F1010800FB136601E09A
:101350000A2E06DB96FBF1F0303002F8080008F1A7
:10136000010896FBF1F001FB1060303002F8080034
:10137000A16908F1010808EB050202EB0A00081A4E
:10138000A0612078C00602D42046FFF7FEF8216A4B
:1013900008AE01EB0A00206204E0D4E9012116F84E
:1013A000010B9047BAF1010AF7D22078C00602D5A6
:1013B0002046FFF7EAF86E4609E016F8010B3E28D2
:1013C0000FD0D4E901219047206A401C2062B8F177
:1013D0000108F2D22046FFF7EEF809B00320BDE87D
:1013E000F08F206A2844206203E0D4E901213020F4
:1013F00090476D1EEBD3F8E7EE62000002FCFFFFA2
:1014000010B5436913B1AFF3008001E0FFF7F6F8C0
:10141000012010BD127800F124010A7000224A70E8
:101420000122EDE711684FF0FF32E9E710B543699B
:1014300013B1AFF3008001E0FFF778F9012010BD90
:10144000128800F1240182840022C2840122EDE787
:1014500011684FF0FF32E9E770B516460C460546B5
:1014600000F044F8036893F80101012806D0FF2C2E
:101470000FD8185D68B101202C7070BDD3F807013A
:101480003246214603F2071303442846BDE8704064
:1014900018474FF0FF3070BD004870471C05002012
:1014A0007546FFF7F9FFAE4605006946534620F042
:1014B0000700854618B020B5FEF7CAFEBDE82040FB
:1014C0004FF000064FF000074FF000084FF0000B00
:1014D00021F00701AC46ACE8C009ACE8C009ACE8B3
:1014E000C009ACE8C0098D467047000010B500F097
:1014F00005F8001D10BD00BF75380000004870479A
:101500003C0500202DE9F0411F46044603260168F2
:10151000072A01F4006004DB08B116A505E016A552
:1015200003E008B115A500E015A521F0100020602A
:10153000A069C01EA0610FB1401EA0612046FFF748
:1015400024F84FB1D4E9012138469047206A401C65
:101550002062C01C206206E0206AFAE7D4E901217B
:1015600015F8010B9047761EF8D22046FFF723F8B6
:10157000BDE8F0814E414E006E616E00494E46005E
:10158000696E66002DE9F047814616468AB03548F7
:1015900078440DC88DE80D0032487844801C03ACB7
:1015A0000DC884E80D0041F69B300844372190FBBC
:1015B000F1F290FBF1F5A5F1800501FB12041B3C53
:1015C00002D56442012000E00020DFF898A08046A8
:1015D0000027FA44AAF1BE0A0EE0E0070AD032461C
:1015E000684607EB470101230AEB810100F0DEFAB0
:1015F0008DE8070064107F1C002CEED1194F7F444A
:10160000AE3F19E0E80715D007EB04100DF1180AFA
:1016100090E80E008AE80E00C068F04201D19819E7
:1016200008903246012306A903A800F0BFFA03ABD5
:1016300083E807006D10641C002DE3D14FF0010317
:1016400032466946B8F1000F03A802D000F099FABB
:1016500001E000F0ABFAC9E90001C9F808200AB0BE
:10166000BDE8F087F85F000010B50446AFF30080D6
:101670002046BDE81040FEF7D6BD00000149182005
:10168000ABBEFEE72600020070475FEA400C08BFD1
:1016900091F0000F4FEA8C234FEAC12243EA5151E7
:1016A0004FEA1C5018BF00F5F0404FEA300018BF59
:1016B00041F000415FEA6C5C00F02980BCF1FF3F23
:1016C00008BF40F080407047130C06BF12044FF073
:1016D000100C4FF0000C130E04BF12020CF1080C9A
:1016E000130F04BF12010CF1040C930F04BF9200FE
:1016F0000CF1020CD30F04BF52000CF1010C114687
:101700004FF00002A0F11F00A0EB0C00704711F099
:10171000004F08BF704731F000413FF4D5AF0B0CCC
:1017200006BF09044FF0100C4FF0000C0B0E04BF65
:1017300009020CF1080C0B0F04BF09010CF1040C99
:101740008B0F04BF89000CF1020CCB0F04BF4900C2
:101750000CF1010CCCF12003A0EB0C0022FA03F3F6
:1017600002FA0CF241EA030100F10100704720F097
:101770007F4C80EA030023F07F47ACEB070303F5BF
:101780007C5300F0004003F1FF032DE980494FEA4C
:10179000154B09B44FEA144325EA0B4E24EA0348DB
:1017A0000FF2042606EB132749083E785FEA32025F
:1017B00003FB0667C7F5000707FB06F64FEA543739
:1017C0004FEAD64606F1020607FB066CCCF1005C38
:1017D0004FEA1C472CEA074C07FB06F40CFB06F506
:1017E00004EB15464FEA961634BF00204FF0004038
:1017F0004FEAD13706FB07FC4FEA1C4C0CFB0BF7FA
:10180000D21B03FB0CF761EB07010CFB0EF7B0EBEF
:10181000074072EB17420CFB08F734BFA2EB0742FC
:10182000B2EB074261EB17414FEA0C444FEA9107D4
:1018300006FB07FC4FEA1C4C0CFB0BF7B0EBC74058
:1018400072EB573203FB0CF734BFA2EBC742B2EB8B
:10185000C74261EB57310CFB0EF7B0EBC70072EBE0
:1018600057720CFB08F734BFA2EBC702B2EBC702FA
:1018700061EB5771039F4FEA816141EA921104EBDA
:10188000CC044FEAD1374FEA826206FB07FC42EAFA
:1018900090124FEA80604FEA1C4C0CFB0BF7D21BF6
:1018A00003FB0CF761EB07010CFB0EF7B0EB0740F5
:1018B00072EB17420CFB08F734BFA2EB0742B2EB06
:1018C000074261EB17414FEA8C554FEA910704EB51
:1018D0009C2406FB07FC4FEA1C4C0CFB0BF7B0EBFF
:1018E000C74072EB573203FB0CF734BFA2EBC74281
:1018F000B2EBC74261EB57310CFB0EF7B0EBC70000
:1019000072EB57720CFB08F734BFA2EBC702B2EBC5
:10191000C70261EB577115EB4C254FEA816141EA33
:1019200092114FEA82624FEAD13742EA901206FBE7
:1019300007FC44F100044FEA80604FEA1C4C0CFBAA
:101940000BF7D21B03FB0CF761EB07010CFB0EF747
:10195000B0EB074072EB17420CFB08F734BFA2EB69
:101960000742B2EB074261EB174115EB1C154FEA3A
:10197000813141EA92414FEA823242EA90424FEA93
:1019800080304FEA0C7644F1000448EA03434EEA03
:101990000B484FF0000EB2EB080C71EB030724BFAD
:1019A000624639464EEB0E0E4FF0000B00185241C6
:1019B00049414BEB0B0BB2EB080C71EB03077BF1CE
:1019C000000B24BF624639464EEB0E0E4FF0000B63
:1019D0000018524149414BEB0B0BB2EB080C71EB79
:1019E00003077BF1000B24BF624639464EEB0E0E17
:1019F00051EA020718BF46F0010616EB0E7655F1C4
:101A0000000254F1000103D5BDE88901BDE800885A
:101A1000BDE88901BDE80048B619524141EB01011A
:101A2000A3F10103704780807F7E7D7C7B7A79788B
:101A3000777676757473727171706F6E6E6D6C6C93
:101A40006B6A6A6968686766666564646363626135
:101A50006160605F5F5E5E5D5D5C5C5B5B5A5A59B6
:101A60005958585757565655555554545353525222
:101A70005251515050504F4F4F4E4E4D4D4D4C4C7A
:101A80004C4B4B4B4A4A4A494949484848474747C3
:101A90004746464645454544444444434343434200
:101AA000424242414141002B9C4630D477002BD02A
:101AB0001CB54FEA370703B44FF010004FF0100188
:101AC000BAF1000F06D0BCF1000FDCBF40F00800F7
:101AD00040F008014FF000000FBCBDE810400BF1D2
:101AE000010BBBF1010F08BF5FEA170722BF12F11C
:101AF000010211F101014FF0004143F1000300F038
:101B0000004043EA00007047F9D35708D0E746EA9F
:101B1000064613F1400F4FEA16461FDD13F1200F62
:101B2000DFBF16430A46002120335B42BED0C3F11B
:101B3000200746EA064602FA07F74FEA164646EA43
:101B40000706C3F1200722FA03F201FA07F721FA88
:101B500003F14FF0000342EA0702A7E746EA020654
:101B600046EA06464FEA164646EA0106BCBF46EA82
:101B70000646360C4FF000034FF000024FF0000114
:101B800094E72DE9804C9A46934670B491E838006A
:101B900007C831EA400C48BF34EA430C03D5FFF7CD
:101BA000E6FDFFF780FFF0BCBDE8008C2DE9804C1E
:101BB0009A46934670B491E8380007C810F0804FF9
:101BC00008BF13F0804F03D100F005F8FFF76BFF5B
:101BD000F0BCBDE8008C20F07F4780EA030023F0D2
:101BE0007F4C07EB0C03A3F57C5300F00040A3F1FE
:101BF000FE0392F0000F00F0B38095F0000F00F0AC
:101C000077802DE901494FEA11404FEA144621EA55
:101C1000004800FB06FC24EA064708FB06F607FB23
:101C200008F800FB07F718EB06484CEB164C4FEA98
:101C3000124B18EB07484FEA15464CEB174022EAC7
:101C40000B4E0BFB06FC25EA06470EFB06F607FBD0
:101C50000EFE0BFB07F71EEB064E4CEB164C4FF03F
:101C600000061EEB074E4CEB174B18EB0B0840F130
:101C7000000018EB0E0B58EB000840F100008F1A23
:101C80004FF000013CBFC943661B14BFB5EB040C09
:101C900000213CBFC943F61B4FEA17444EEA8E0EA3
:101CA00027EA04454FEA1C4704FB07622CEA074C6D
:101CB00005FB07F70CFB05F604FB0CFC16EB0746CF
:101CC00042EB174216EB0C4642EB1C421BEB06069E
:101CD00058EB0202414146EA9E0601D5BDE8018962
:101CE000B619524141EB0101A3F10103BDE801899D
:101CF0004FEA14454FEA114724EA054621EA074C0A
:101D000005FB07F406FB07F70CFB06F105FB0CFCD3
:101D100011EB074144EB17444FEA124711EB0C411A
:101D200044EB1C4422EA074C05FB07F206FB07F7CD
:101D30000CFB06F605FB0CFC16EB074642EB1742C4
:101D400016EB0C4642EB1C456A1854F1000148BFE3
:101D50007047B619524141EB0101A3F101037047ED
:101D600095F0000F37D04FEA11424FEA144721EAAD
:101D7000024624EA074C02FB07F106FB07F70CFBBF
:101D800006F402FB0CFC14EB074441EB17414FEA4D
:101D9000154714EB0C4441EB1C4125EA074C02FBB0
:101DA00007F506FB07F70CFB06F602FB0CFC16EB2F
:101DB000074645EB174516EB0C4645EB1C4212193E
:101DC00051F1000148BF7047B619524141EB010182
:101DD000A3F1010370474FEA14454FEA114724EA83
:101DE000054621EA074C05FB07F106FB07F70CFB4C
:101DF00006F24FF0000605FB0CFC12EB074241EB2C
:101E0000174112EB0C4251EB1C4148BF704792182E
:101E100041EB0101A3F101037047FEE7704772B681
:101E2000FEE700002DE9F84FDFF8B8910024A9F192
:101E3000040B23460F2709F1040AABF1040EC9E095
:101E40000125A5402A40AA427DD1674ED1F804C0A1
:101E5000ACEB0608B44532D014DCBCF1030F3AD029
:101E600009DCBCF1000F2AD0BCF1010F1CD0BCF181
:101E7000020F31D11DE0BCF1110F17D0BCF1120FD0
:101E80002AD119E0B8F5881F19D006DCB8F5803FD3
:101E900015D0B8F5801F1FD111E0B8F5001F0ED086
:101EA000B8F5041F18D10AE0CB6815E0CB681B1DFC
:101EB00012E0CB6808330FE0CB680C330CE08B6882
:101EC0002BB1012B4FF0080303D0456104E004233C
:101ED00002E0056100E00023FF2A01D8064601E088
:101EE00000F104064FEA840501D9A5F12005D6F8D2
:101EF000008007FA05FC28EA0C0803FA05F548EA11
:101F00000508C6F800804D68ED0062D5374DAE6912
:101F100046F00106AE61AD6924F0030605F0010547
:101F20000095334D06EB050CDCF80850A607360F7C
:101F300007FA06F825EA0805DFF8B880404503D11E
:101F40004FF0000817E044E0DFF8AC80404502D1D4
:101F50004FF001080FE0DFF8A480404502D14FF0B8
:101F6000020808E0DFF89880404502D14FF00308EE
:101F700001E04FF0040808FA06F848EA0508CCF832
:101F800008804D68D9F80060ED024D4601D5164332
:101F900000E096432E604D68DAF80060AD025546C9
:101FA00001D5164300E096432E604D68DBF80060D3
:101FB000AD035D4601D5164300E096432E604D68A3
:101FC000DEF80060ED03754601D5164300E0964348
:101FD0002E60641C0D682A46E5407FF431AFBDE8F1
:101FE000F88F0000080401400000111000100240AA
:101FF0000000014000080140000C014000100140B9
:10200000001401408068084000D0012070470AB1E8
:10201000016170470904FBE70148806870470000D0
:1020200000000020024881680278114481607047F6
:1020300000000020074810B5016841F01001016060
:10204000032000F075F80F2000F006F800F024F8E7
:10205000002010BD0020024070B50D4D04464FF425
:102060007A712878B1FBF0F00A490968B1FBF0F009
:1020700000F0E3FC48B9102C07D200222146501E84
:1020800000F036F800206C6070BD012070BD0000CB
:10209000000000200C0000200C4808B5816941F0C8
:1020A00001018161816901F001010091C16941F083
:1020B0008051C161C06900F08050009004484168BF
:1020C00021F0E06141F00071416008BD0010024064
:1020D00000000140002809DB00F01F0201219140AF
:1020E0004009800000F1E020C0F8001170470000B6
:1020F000F0B40E4B1B680C46C3F30223C3F1070573
:10210000042D00D90425191D072901D2002300E060
:10211000DB1E012606FA05F1491E214099409E402A
:10212000761E16403143F0BC01F0C6BE0CED00E057
:10213000064900F0070208684FF6FF03184040EA1E
:102140000220034A10430860704700000CED00E0D5
:102150000000FA05014901200862704700000E42A4
:1021600010B501460020234C012922D0022939D084
:1021700010291DD161682268D20119D51E48C1F30A
:102180008342C903805C0AD561681B4AC1F34041A0
:10219000921E515C194AB2FBF1F1484301E0184923
:1021A00048436168490203D440000321B0FBF1F0C9
:1021B00010BD226AC2F30121012903D1920701D582
:1021C000C80310BD022905D1626A920702D549F6FB
:1021D000404010BD0329FCD121688903F9D54FF295
:1021E000244010BD00F01AF96168C1F38131491C27
:1021F0004900DBE700100240B454000800127A00E6
:1022000000093D002DE9F84305460078354CC0072C
:1022100054D0E0690026C00008D4E06940F0805046
:10222000E061E069012600F0805000902E480168CE
:10223000C90512D40168804641F480710160FFF73E
:10224000EBFE074605E000BFFFF7E6FEC01B642873
:1022500023D8D8F80000C005F6D5206A10F44070E5
:1022600021D0A98801F4407181421CD0206A1F4905
:10227000012220F440700A6000220A602062C00738
:1022800011D0FFF7C9FE074641F2883808E000BFC9
:10229000FFF7C2FEC11B414502D90320BDE8F88308
:1022A000206A8007F4D5206A696820F440700843EA
:1022B00020621EB1E06920F08050E061287880073C
:1022C00005D56068A96820F440400843606028781C
:1022D000C00605D56068E96820F4800008436060A6
:1022E0000020DBE700100240007000404004424242
:1022F0002DE9F0470F46050061D0434E306800F0ED
:102300000700B84209D2306820F007003843306037
:10231000306800F00700B84251D128683B4C810773
:1023200012D5400703D5606840F4E060606028780B
:10233000000703D5606840F4605060606068A96879
:1023400020F0F000084360602878C00728D0686853
:10235000012810D02168022810D0890700292EDA20
:10236000616821F0030101436160FFF755FE80467B
:1023700041F288390DE021688903EFE78901EDE733
:10238000FFF74AFEA0EB0801494502D90320BDE84A
:10239000F0876068696800F00C00B0EB810FEFD146
:1023A000306800F00700B8420BD9306820F0070011
:1023B00038433060306800F00700B84201D0012097
:1023C000E5E72878400705D56068E96820F4E06013
:1023D000084360602878000706D56068296920F402
:1023E000605040EAC100606000F028F86168084A67
:1023F000C1F30311515CC8400649086006480068F3
:10240000FFF72AFE0020C2E7002002400010024031
:10241000C45400080C0000200400002004480549B2
:1024200000684968044AC1F3C221515CC840704742
:102430000C00002000100240D45400080E4A5168DD
:102440000E4801F00C03042B11D0082B0FD10C48BF
:10245000C1F38343C903C05C0AD55168084AC1F37C
:102460004041921E515C054A5043B0FBF1F0704769
:1024700004494843704700000010024000127A00EF
:10248000A254000800093D002DE9F84F040070D067
:102490002078C04DC00749D06868C0F3810001288A
:1024A00007D06868C0F38100022809D16868C003BA
:1024B00006D52868800339D560680028E7D035E064
:1024C0006068B0F5803F0BD010B1B0F5A02F11D0EF
:1024D000286820F480302860286820F4802002E0FA
:1024E000286840F480302860606890B1FFF794FD60
:1024F00006460AE0286840F480202860F0E700BF24
:10250000FFF78AFD801B642873D828688003F7D5FD
:102510000CE0FFF781FD064605E000BFFFF77CFDFC
:10252000801B6428F0D828688003F7D420789A4E5E
:1025300080074FF001094FF0000839D5686810F0A6
:102540000C0F07D06868C0F38100022809D16868C1
:10255000C00306D42868800714D52069012808D153
:1025600010E02069B0B1C6F80090FFF755FD0746AE
:1025700005E00AE1FFF750FDC01B0228C4D8286817
:102580008007F7D52868616920F0F80040EAC100AB
:1025900028600DE0C6F80080FFF73EFD074604E026
:1025A000FFF73AFDC01B022823D828688007F7D41C
:1025B000207800072CD57948A169D9B1C0F80090DE
:1025C000FFF72AFD074604E0FFF726FDC01B02289F
:1025D0000FD8686A8007F7D571484FF4FA51006840
:1025E000B0FBF1F0009000BF0098411E0091FAD2BC
:1025F0000EE080E0C0F80080FFF70EFD074604E023
:10260000FFF70AFDC01B022875D8686A8007F7D457
:102610002078400760D5E8690027C00008D4E86941
:1026200040F08050E861E869012700F08050009098
:102630005C480168C90513D40168834641F4807180
:102640000160FFF7E9FC824606E000BFFFF7E4FC0B
:10265000A0EB0A0064284ED8DBF80000C005F5D5D1
:10266000E06801280AD008B1052813D0286A20F0B4
:1026700001002862286A20F0040002E0286A40F085
:1026800001002862E06841F2883B98B1FFF7C4FC82
:1026900082460BE0286A40F004002862EEE700BFA3
:1026A000FFF7BAFCA0EB0A0159455AD8286A8007FF
:1026B000F6D50CE0FFF7B0FC824605E0FFF7ACFC76
:1026C000A0EB0A0159454CD8286A8007F6D41FB1FF
:1026D000E86920F08050E861E06988B36968C1F377
:1026E0008101022944D00228C6F8608004D0FFF797
:1026F00093FC044638E034E0FFF78EFC074604E024
:10270000FFF78AFCC01B02282BD828688001F7D469
:10271000206AB0F5803F05D16868A16820F40030D8
:1027200008436860D4E908010843696821F474111A
:1027300008436860C6F86090FFF76EFC044606E048
:1027400025E000BFFFF768FC001B022809D82868B5
:102750008001F7D51BE000BFFFF75EFC001B0228DD
:1027600002D90320BDE8F88F28688001F4D40EE078
:102770000128F7D06868226A00F48031914204D1C0
:10278000616A00F47010884201D00120EAE700205D
:10279000E8E700000010024000004242800442428C
:1027A0000C00002000700040024850F8210080B268
:1027B00070470000006C0040024800EB810091B2BD
:1027C00001607047006C004070B5040003D0607C6D
:1027D000002610B105E0012070BD2674204600F0EF
:1027E0003DF802206074204600F00AF9042550BB31
:1027F000204601F040F930BB2068416821F0070114
:102800004160A06820B11448016821F00101016015
:102810001148001F0168A26821F460711143016032
:102820006068411C04D10120FFF79AFC58B1401E9A
:102830002268C0F303419160216880B2C8602046DD
:1028400001F034F908B16574C5E7E67301206073DF
:10285000A0736074002070BD306C004008B5006843
:10286000084988420DD1FFF775FC0748C16941F05E
:102870000061C161C069054900F00060009001205D
:10288000086008BD00280040001002403C0442429D
:102890002DE9F0410D4604003BD0C5B3207C012852
:1028A0003AD04FF0010884F8108002206074E87874
:1028B00072B301F0D7F8E073687801F0D3F8607371
:1028C000A87801F0CFF8A073C2B2617BE07B01F081
:1028D0001FF920732870204601F00AF94FF4616156
:1028E000B0FBF1F1002518292DD91822B1FBF2F126
:1028F000A1EB011101EB4101C1EB011100EBC1168C
:102900003146204601F043F90427C8B90BE000E046
:1029100004E00120BDE8F0810220FBE7E073687865
:102920006073A878CFE7204601F0DBF8411C0AD09D
:10293000B04208D206490144204601F014F910B112
:1029400067742574E5E784F8118025740020E1E7B9
:10295000805101002DE9F0410D46040024D01DB343
:10296000207C012823D04FF0010884F81080022039
:1029700060742878EAB101F075F84FF4616100FBEA
:1029800001F6687801F06EF8C0EB001006EB8006E7
:10299000A87801F067F835182946204601F0F7F8C5
:1029A0000026042710BB0FE00120BDE8F0810220C3
:1029B000FBE74FF4616148436978C1EB011100EB1B
:1029C0008100A9784518E7E72068416821F00501F2
:1029D0004160204601F085F8411C0AD0A84208D287
:1029E00006490144204601F0BEF810B16774267410
:1029F000DAE784F8118026740020D6E780510100C0
:102A000070B504000AD02068416821F008014160D7
:102A1000FFF702FB05464FF47A7608E0012070BD0F
:102A2000FFF7FAFA401BB04201D9032070BD2068BD
:102A300040680007F4D5002070BD10B5401EB0F10D
:102A4000807F01D3012010BD4FF0E02460610F2191
:102A5000601701F031FA0020A061072020610020FA
:102A600010BD7047704710B590F83C20012A22D065
:102A7000012280F83C20CA688C6822F4407222430C
:102A80004C6822F4806222430C6822F400622243E4
:102A90000C6922F4805222434C6922F400522243F2
:102AA000C969002322F480420A4301684A6480F81D
:102AB0003C30002010BD022010BD000070B590F821
:102AC0003C20012A26D0012480F83C40022280F8D4
:102AD0003D2003685A689D6822F070060A683243F8
:102AE0005A600D4B02689A4208D0B2F1804F05D06F
:102AF0000A4B9A4202D00A4B9A4204D1496825F007
:102B000080031943916080F83D40002180F83C101B
:102B1000084670BD022070BD002C0140000400403A
:102B20000008004010B5040003D094F83D0010B137
:102B300007E0012010BD002084F83C00204600F092
:102B40001FF8022084F83D00211D206801F07EF866
:102B5000012084F8460084F83E0084F83F0084F8A1
:102B6000400084F8410084F8420084F8430084F86F
:102B7000440084F8450084F83D00002010BD0000AA
:102B800008B5114A01681148914208D1816941F4A0
:102B900000618161806900F40060009008BDB1F1BE
:102BA000804FFBD1C16941F00101C161C0690022C0
:102BB00000F00100009011461C20FFF799FABDE8D3
:102BC00008401C20FFF786BA002C0140001002408C
:102BD00090F83D10012901D001207047022180F8B2
:102BE0003D100168CA6842F00102CA6000680B49E2
:102BF000884208D0B0F1804F05D00949884202D000
:102C00000849884204D1816801F00701062903D0F0
:102C1000016841F00101016000207047002C014073
:102C2000000400400008004070B5044690F83C00E5
:102C30000025012817D0012684F83C60022084F882
:102C40003D002068826822F0770222F47F42826091
:102C50000868502838D00DDC20284FD005DC90B310
:102C6000102811D14AE0022070BD302846D04028FB
:102C70000AD13BE060282FD070280DD0B0F5805FDE
:102C800003D0B0F5005F12D0012584F83D6000202C
:102C900084F83C00284670BDCB68D1E9012120684A
:102CA00001F01DF82068816841F0770109E0CB68E8
:102CB000D1E90121206801F012F82068816841F40F
:102CC00080418160E1E719E0CA684968206801F045
:102CD000BBF85021206806E0CA684968206801F006
:102CE000C4F86021206801F004F8CEE7CA6849689A
:102CF000206801F0A9F840212068F4E72268014625
:102D00001046F0E770472DE9F04104460068C668B8
:102D100005694FF00007A90713D5B10711D5F91EB2
:102D2000016101202077206880698007204602D059
:102D3000FFF7E8FF04E000F0A5F8204600F037F9BF
:102D40002777680716D5700714D521686FF004003F
:102D50000861022020772068806910F4407F2046B7
:102D600002D0FFF7CFFF04E000F08CF8204600F01F
:102D70001EF92777280715D5300713D521686FF07E
:102D800008000861042020772068C0698007204679
:102D900002D0FFF7B7FF04E000F074F8204600F01F
:102DA00006F92777E80616D5F00614D521686FF0E6
:102DB00010000861082020772068C06910F4407F67
:102DC000204602D0FFF79EFF04E000F05BF82046AB
:102DD00000F0EDF82777E80708D0F00706D0216863
:102DE0006FF001000861204600F030F9280608D590
:102DF000300606D521686FF0800008612046FFF795
:102E000030FE680608D5700606D521686FF04000D0
:102E10000861204600F06CF9A8060AD5B00608D56E
:102E200021686FF0200008612046BDE8F041FFF7FF
:102E300019BEBDE8F081000000B585B00021009109
:102E400001910291039100680B49884212D10B480D
:102E5000816941F0040181618069694600F00400E4
:102E600004904FF480700090022001900390044879
:102E7000FEF7D8FF05B000BD002C01400010024055
:102E800000080140704770B5044690F83C000026E9
:102E90000D4601280FD0012084F83C006AB1042AB5
:102EA0001DD0082A2FD00C2A3FD00126002084F8FC
:102EB0003C00304670BD022070BD206800F022FF4B
:102EC0002068816941F0080181612068816921F0F1
:102ED00004018161206881692A69114311E0206839
:102EE00000F038FF2068816941F400618161206849
:102EF000816921F480618161206881692A6941EAE0
:102F000002218161D2E7206800F050FF2068C1698A
:102F100041F00801C1612068C16921F00401C1616B
:102F20002068C1692A69114311E0206800F06AFF36
:102F30002068C16941F40061C1612068C16921F460
:102F40008061C1612068C1692A6941EA0221C161C9
:102F5000ACE710B5040003D094F83D0010B107E0D1
:102F6000012010BD002084F83C00204600F01EF82F
:102F7000022084F83D00211D206800F067FE01203A
:102F800084F8460084F83E0084F83F0084F840004E
:102F900084F8410084F8420084F8430084F8440037
:102FA00084F8450084F83D00002010BD704770474C
:102FB00010B50446022249B104290ED0082913D0C5
:102FC00094F84100012816D0012010BD94F83E006D
:102FD0000128F9D184F83E200FE094F83F00012841
:102FE000F2D184F83F2008E094F840000128EBD1AA
:102FF00084F8402001E084F841200122206800F09C
:1030000061FE0F492068884203D1426C42F40042BD
:1030100042642068884208D0B0F1804F05D0094949
:10302000884202D00849884204D1816801F0070132
:10303000062903D0016841F001010160002010BDA4
:10304000002C0140000400400008004070B50068FA
:10305000B0F1804F45D102212248FEF7D3FF224C28
:10306000224D4021A0702846FEF7CCFFA07210210F
:103070002846FEF7C7FF0021A0740A465FF001034F
:1030800004EBC100457825B1012D06D0022D17D1E2
:103090000AE08578A5B9437012E085780DB14270D9
:1030A0000EE0022545700BE08578012D10D0858853
:1030B0006D1CADB28580C82D02D9837104F8312012
:1030C000491CC9B20329DBD3BDE8704001F0D2BD71
:1030D00042708588C82D01D204F831308280827117
:1030E000EEE770BD000C0140D8040020000801404C
:1030F0007047FEE710B5044601F08FFAD02001F0CA
:1031000069FA01F058FA204601F064FA01F053FA26
:1031100001F083FAD12001F05DFA01F04CFA01F0E0
:103120002DFA0446012001F06DFA01F085FA2046DF
:1031300010BD70B50D46044601F06FFAD02001F0C5
:1031400049FA01F038FA204601F044FA01F033FA66
:10315000284601F03FFA01F02EFABDE8704001F078
:103160006BBA00002DE9F04186B00024314800948C
:10317000019402940394816941F010018161816995
:1031800001F010010491816941F0200181618169A0
:1031900001F020010491816941F00401816181699C
:1031A00001F004010491816941F0080181618069A5
:1031B000214F00F008004FF40055049000222946EA
:1031C0003846FEF724FFDFF8748000224FF40F41E9
:1031D0004046FEF71CFF0095022601250396CDE927
:1031E000015469463846FEF71DFE50208DE8310037
:1031F00069461348FEF716FE009669464046CDE93B
:103200000145FEF70FFE4FF47060009001AA1120F7
:1032100082E8510069464046FEF704FEE803CDE926
:103220000005CDE9024669464046FEF7FBFD06B0C3
:10323000BDE8F0810010024000100140000C014088
:10324000000801401CB500241C4801941A49009450
:103250000160611E41604FF480718160FFF7B4FA34
:1032600008B1FEF7DCFD01211448FFF79DFAA0F537
:103270002541A5391FD08DF804408DF805408DF803
:103280000640012201A90D48FFF764FB08B1FEF7D3
:10329000C6FD01208DF800008DF801008DF80200B8
:1032A00002468DF8034069460448FFF7F1FA00280A
:1032B00001D0FEF7B4FD1CBD002800403400002002
:1032C00010B596B000240F94109411941294139496
:1032D0001C2108A81494FDF711F820216846FDF779
:1032E0000DF82848264901604721C0E9011440F241
:1032F000E731C0E9031444618461FFF713FC08B1AE
:10330000FEF78DFD4FF480500F900FA91D48FFF779
:103310008BFC08B1FEF783FD1A48FFF71AFE08B1CF
:10332000FEF77DFD139413A916481494FFF7C6FB0E
:1033300008B1FEF774FD6020CDE908040A940B94EF
:103340000C940D94002208A90E480E94FFF79BFDE3
:1033500008B1FEF764FD00944FF40050CDE904403D
:10336000029401940394694606480794FFF77BFB97
:1033700008B1FEF754FD0348FFF75EFD16B010BD1F
:10338000002C01404800002010B586B000241748EA
:10339000009401940294039404944FF080410594A6
:1033A000016040F2CF21C0E9011440F2E731C0E9E9
:1033B00003148461FFF7B6FB08B1FEF730FD4FF44C
:1033C0008050009069460948FFF72EFC08B1FEF7CF
:1033D00026FD049404A905480594FFF76FFB002817
:1033E00001D0FEF71CFD06B010BD000090000020CB
:1033F000FEE7000001224FF440610148FEF707BEDE
:10340000000C014010B501210848FFF7CDF94AF240
:10341000A554A04208D000F035F82246BDE810407F
:1034200001210248FFF7C8B910BD00003400002098
:10343000124800B500688DB01049091F096840EABC
:10344000014000F5E1400B900BA8FCF7BFFF0146DF
:103450002C226846FCF720FF0948059901F26C719F
:1034600001800499491C4180039981800299C1809F
:1034700001990181009941810DB000BD1C280040D7
:1034800010000020184810B501888CB0A1F26C71B2
:1034900005914188491E049181880391C188029158
:1034A00001890191408900906846FCF7B4FFA0F5BE
:1034B000E1440E48FFF7A4FA0D4801688906FCD5DF
:1034C000016841F010010160094A210C14321160B9
:1034D000121DA1B21160016821F0100101600168A4
:1034E0008906FCD50CB010BD10000020340000206F
:1034F00004280040FEE7000010B50021074C0A46F2
:10350000002004EBC1131A54401CC0B28028FAD327
:10351000491CC9B20829F3D310BD0000D80000200F
:10352000F0B50B4424E0044685181DE07F2C19D823
:10353000002917DB3F2915DCCE1701EB56764FEA41
:10354000E60C0D4F26F0070607EBCC172744A1EB3E
:10355000060E97F800C0012606FA0EF62CEA060CB5
:1035600087F800C0641C24B2A542DFDC491C09B204
:103570008B42D8DCF0BD0000D800002010B5002040
:103580004FF47A720021491C9142FCD3401C9042B6
:10359000F8D3012000F024FABDE81040012000F02B
:1035A0002BBA70B500240646802525FA04F0304079
:1035B00000D0012000F020FA012000F011FA0020D4
:1035C00000F00EFA641CE4B2082CEED3012000F0E7
:1035D00007FABDE87040002000F002BA10B50120E3
:1035E00000F00AFA012000F0FBF9002000F004FAD4
:1035F000BDE81040002000F0F3B910B5002000F045
:10360000FBF9012000F0ECF9BDE81040012000F0CA
:10361000F3B910B5FFF7B2FFAE2000F0F9F9D520ED
:1036200000F0F6F9802000F0F3F9A82000F0F0F99E
:103630003F2000F0EDF9D32000F0EAF9002000F07F
:10364000E7F9402000F0E4F9A12000F0E1F9C820FA
:1036500000F0DEF9DA2000F0DBF9122000F0D8F9F2
:10366000812000F0D5F9CF2000F0D2F9D92000F068
:10367000CFF9F12000F0CCF9DB2000F0C9F93020BF
:1036800000F0C6F9A42000F0C3F9A62000F0C0F9AC
:103690008D2000F0BDF9142000F0BAF9AF2000F041
:1036A000B7F9FFF729FFBDE8104000F085B90246E1
:1036B000012000E05043491EFCD270470FB470B5A2
:1036C000C0B014460D46064648AA68464799FCF71E
:1036D000D1FD23466A462946304600F0FFF840B047
:1036E00070BC5DF814FB0000F0B50B4423E0044609
:1036F00085181CE07F2C18D8002916DB3F2914DC24
:10370000CE1701EB567C4FEAEC070C4E2CF0070C61
:1037100006EBC7162644A1EB0C0E37784FF0010CD0
:103720000CFA0EFC87EA0C073770641C24B2A54221
:10373000E0DC491C09B28B42D9DCF0BDD800002086
:1037400010B50C4640F0B00000F062F9102040EADD
:10375000141000F05DF904F00F00BDE8104000F017
:1037600057B9000008B5082B0ED0062B15D00C2B2E
:103770001ED1104B02EBC20203EB8202A2F5906253
:10378000182300920C2211E00B4B03EB0212A2F55E
:10379000007210230092082208E0084B02EB42025C
:1037A00003EB4202C03A00920823062200F008F818
:1037B00008BD0000065D0008DC540008CC5A000873
:1037C0002DE9F04F1F4616460D4682460024FFF7AE
:1037D000A7FE7F1EF81707EB50700121DFF898B0A5
:1037E00001EBE00743E000203DE000BF0AEB0003EF
:1037F0007F2B36D8E91705EB5171CA1021F007016C
:10380000691A002D03DA521E083112B209B202EB16
:103810000409B9F1070F0ED8099A04FB06F802440F
:103820000BEBC91E18F802201EF803C08A404CEAB0
:10383000020C0EF803C009F10102072A11D80BEBA4
:10384000C91202EB0308099A04FB06FC024498F82B
:1038500080301CF80220C1F10801CA40134388F8E7
:103860008030401CC0B2B042C0D3641CE4B2A74256
:10387000B9DCBDE8F08F0000D80000202DE9F0474A
:103880001E46DDF8208014008A468146434604D453
:103890002B22FFF767FF254603E02D22FFF762FF8B
:1038A000654200240A2714E0311B0A20491EFFF755
:1038B000FEFEB5FBF0F0B0FBF7F107FB1102641C54
:1038C00004FB089000B2434651463032FFF74AFFEE
:1038D000E4B2B442E8D3BDE8F08700002DE9FF4F21
:1038E000002583B09B4690462C46AA46DFF8C09040
:1038F00056E010068DF8042005F101050DD403985B
:10390000ADB220448DF805A000B25B460499FFF7E4
:1039100029FF04EB0B0084B242E0A8B218F80010B3
:10392000002941D0401C8DF8051085B28DF806A005
:10393000002606E0384601A9FCF708FD68B1761CB0
:10394000B6B2C6EBC60000EB800101EB09000746EA
:1039500018A1FCF7FBFC0028ECD1BBF1080F03D049
:10396000BBF1060F1CD111E0C6EBC60000EB8001D5
:1039700001EB0900C01C009003981023204400B202
:103980001A460499FFF71CFF103408E00398062339
:10399000204400B23F220499FFF7E4FEA41DA4B224
:1039A00018F80520002AA4D107B0BDE8F08F000068
:1039B000626A00080000000070B5084D0024002174
:1039C0002046FFF7BDFE05EBC410802100F031F862
:1039D000641CE4B2082CF2D370BD0000D8000020B3
:1039E000044B4FF4807108B1012200E00022184618
:1039F000FEF70DBB000C0140044B4FF4007108B101
:103A0000012200E000221846FEF701BB000C014035
:103A100010B50446FFF7E2FD7820FFF7C2FD002055
:103A2000FFF7BFFD2046FFF7BCFDBDE81040FFF7E4
:103A3000E4BD70B50D460646FFF7D0FD7820FFF7D0
:103A4000B0FD4020FFF7ADFD002404E0305DFFF73E
:103A5000A8FD641CE4B2AC42F8D3BDE87040FFF7A7
:103A6000CCBD7047010901EB810100F00F0000EBB4
:103A70004100C0B2704770B50446FEF7CDFA054666
:103A80004FF47A7606E0FEF7C7FA401BB04201D940
:103A9000032070BD206840688006F4D52068416826
:103AA00041F010014160002070BD000070B5044677
:103AB0000068416821F010014160FEF7ADFA05464B
:103AC0004FF47A7607E000BFFEF7A6FA401BB0423B
:103AD00001D9032070BD206840688006F4D500201D
:103AE00070BD0168086A496A89B241EA00407047BE
:103AF000006881698AB2C1698BB2816989B28A42E0
:103B000003D0C06961F31F40704743EA0240704729
:103B1000F0B56424C1EBC1030927A500072603EB18
:103B200001130329B3FBF7F100F5FA6011440144D6
:103B30000AD2401EB0FBF4F201EB9001B0FBF5F0AD
:103B4000891A0844001D08E0B0FBF4F201EB900173
:103B5000B0FBF5F0891A0844801CB0FBF6F106FBB7
:103B60001100C0B2F0BD70B50D4606460024FFF747
:103B700082FF48B93168280C08623168A8B24862EF
:103B80003046FFF793FF00B10124204670BD70B5A9
:103B90000D4606460024FFF76EFF48B93168280C31
:103BA00088613168A8B2C8613046FFF77FFF00B175
:103BB0000124204670BD7047FEF734BA70B594B04A
:103BC00028216846FCF79AFB14210AA8FCF796FB0B
:103BD000002501240F951195052012950090CDE93F
:103BE000025410954FF48030019002260494CDE9E0
:103BF00007604FF4E01009906846FEF745FC08B1F5
:103C000072B6FEE70F20CDE90A064FF48060CDE9D9
:103C10000C5002210AA80E95FEF76AFB08B172B695
:103C2000FEE74FF48070CDE90F400FA8FEF7EAFAE7
:103C3000002801D072B6FEE714B070BD70470000D6
:103C40000148FFF760B8000090000020F0B502685E
:103C5000194B1A4C1A4D4FF08047984205D0B84284
:103C600003D0A04201D0A84203D122F070064A68D6
:103C70003243984205D0B84203D0A04201D0A842B6
:103C800003D122F44074CA6822434C6922F08002B6
:103C9000224302608A68C2620A688262984201D145
:103CA00009690163012141610169C90703D0016903
:103CB00021F001010161F0BD002C01400004004031
:103CC0000008004010B501F01F030121046A99406B
:103CD0008C430462016A9A401143016210BD10B521
:103CE000846842EA032224F47F440A432243826028
:103CF00010BD826822F070020A4342F00701816021
:103D00007047000030B5036A026A22F001020262C5
:103D10004268846924F073050C682C4323F0020583
:103D20008B682B430A4DA8420BD123F00805CB68C2
:103D300022F440722B434D6923F0040315438A6932
:103D40002A434260846149684163036230BD0000D8
:103D5000002C014030B5026A036A23F010030362AD
:103D6000436884690D6824F4E64444EA05248D68B8
:103D700022F0200242EA05120B4DA8420ED1CD6876
:103D800022F0800242EA05124D6923F4406343EABF
:103D900085038D6922F0400243EA85034360846114
:103DA00049688163026230BD002C014030B5036A6E
:103DB000026A22F4807202624268C46923F40073CA
:103DC00024F073050C682C438D6843EA05230C4DE1
:103DD000A8420ED1CD6823F4006343EA05234D6960
:103DE00022F4405242EA05128D6923F4806342EACC
:103DF00005124260C4614968C163036230BD0000BE
:103E0000002C014030B5046A026A22F4805202623A
:103E10004268C3690D6823F4E64343EA05238D68CD
:103E200024F4005444EA0534064DA84204D14D69F7
:103E300022F4804242EA85124260C361496801640B
:103E4000046230BD002C014010B5036A046A24F0FE
:103E500001040462846924F0F00444EA021423F0AB
:103E60000A020A438461026210BD10B5036A046A43
:103E700024F010040462846923F0A00324F4704445
:103E800044EA023243EA01118261016210BDFEE799
:103E9000490050EAC12018BF04204A0D18BF40F065
:103EA000010040F2FF72B2EB515F08BF40F0020028
:103EB000012808BF052070470907090E002804DB08
:103EC00000F1E02080F80014704700F00F0000F1CE
:103ED000E02080F8141D704730380A2801D20120F4
:103EE0007047002070470000054B012933F810206F
:103EF00004D0521E23F81020FFF7C4BA521CF9E771
:103F0000100000200648016841F0807101600548FA
:103F100000214160016841F001010160704700002B
:103F2000FCED00E0001000E0064A10B553680649B9
:103F3000064C0968B1FBF4F141435068C01A88424D
:103F4000FBD310BD001000E00C00002040420F0029
:103F5000012802D102488170C27000F08DB90000C2
:103F60001C0000207520FFF7C5B8000070B51E4D7D
:103F70001E4C00262878012808D12078401CC0B2A9
:103F80002070032801D3012020702E70287A012888
:103F900008D12078401E10F0FF00207001D10220CF
:103FA00020702E72287C01280FD02078012813D091
:103FB0000228DFD100F0D2FD102320223021602022
:103FC000FFF792FBFFF7F8FCD4E7FFF795FAFFF74E
:103FD000F3FC2E74207870BD00F0C0FD1023202269
:103FE00030210020ECE70000D80400201C00002055
:103FF00010B511494FF47A7301280DD0002268B131
:1040000002280AD10D48047854B143880A3B1B04A6
:104010001B0C43800BD00BE00B6010BD0A6010BD81
:1040200042880A3292B242809A4201D3012202703F
:104030004088086010BD0000342C01402C00002096
:1040400008B5FFF759FA0B481023002100901A46D3
:104050000846FFF7B5FB082307A214210020FFF74D
:104060003DFC01B00823282105A200205DF804EBE7
:10407000FFF734BC716F0008BFAAB9D8B5C60000FD
:10408000BAF4CEFCB5C600002DE9F04101260027A8
:104090002B4D3446B8462878012806D1641CE4B27A
:1040A000022C00D9002485F80080287A012805D147
:1040B00044B1641E5FFA84F485F80880287C0128E6
:1040C00002D00AE00224F7E76FB10027FFF714FAE5
:1040D000FFF772FC264685F8108036B1012E07D016
:1040E000022E0DD00FE00127F0E70020BDE8F0819F
:1040F00017B1012F02D006E0012002E0002000E00D
:104100000220FFF775FF74B1012C12D0022CC2D12E
:10411000FFF796FF1023302228210020FFF7E4FA52
:10412000FFF74AFCB7E7FFF78BFF10231A46002181
:10413000F3E7FFF785FF102330221421EDE700009D
:10414000D8040020FDF776FFFFF738FDFFF70AF8E7
:10415000FFF778F8FFF7B4F8FFF716F90F48FEF706
:1041600037FD00210E48FEF723FFFFF7CBFEFFF7D8
:1041700050FAFFF7C1F900F017F80122510309487E
:10418000FDF745FFFFF7F2FE012804D00228F9D120
:1041900000F098FBF6E700F009F8F3E79000002044
:1041A0004800002000100140FFF72CB92DE9F04134
:1041B00001262F4D2F4CB0460027287801280BD11F
:1041C00084F80680E1790126491CC9B24046E171B4
:1041D000082900D3E0712F70287A01280CD184F8C7
:1041E0000680E0794FF00206401E10F0FF00E071FB
:1041F00001D10720E0712F72287C012819D1FFF727
:104200007BF9FFF7D9FBE0792F74012806D002284B
:1042100007D0032808D0042809D00DE00020BDE80D
:10422000F08100F0DDFC04E0FFF72EFF01E000F07C
:10423000F9F8E079012809D0022E14D0012EBCD162
:10424000C0B2411ECAB2801EC1B205E0022E07D024
:10425000012EB2D100221146A079FFF779FEACE71A
:1042600000220121F8E7C1B2481EC2B2F4E7000003
:10427000D80400201C000020F8B5FFF73DF93648AF
:104280002C2300901A460A212A20FFF799FA334C72
:1042900000213022A078E37898420AD26579267905
:1042A000AD1B15F0FF05657103D1401CA070A17115
:1042B0006271C0B298420AD9637925792B44DBB286
:1042C0006371602B03D1401EA070A1716271244DF7
:1042D000C0B205EBC010202300901A46102160796F
:1042E000FFF76EFAA078C8B105EBC01080380090D7
:1042F000607920231A4610213038FFF761FAA07840
:1043000002280BD305EBC010A0F5807000906079F7
:1043100020231A4610216038FFF752FAA078202394
:1043200005EBC0108030009060791A4610213030C3
:10433000FFF746FAA078202305EBC01000F5807047
:10434000009060791A4610216030FFF739FABDE815
:10435000F840FFF731BB0000917300081C000020FB
:10436000916F00087FB5054600246E4604F13B00BE
:10437000C0B2FEF7BFFE3055641CE4B20E2CF5D37C
:104380009DF801009DF8001000EB012028809DF8A9
:1043900003009DF8021000EB012068809DF80500E5
:1043A0009DF8041000EB0120A8809DF807009DF8FF
:1043B000061000EB012000F01EFFC5E902019DF888
:1043C00009009DF8081000EB012028829DF80B00E1
:1043D0009DF80A1000EB012068829DF80D009DF801
:1043E0000C1000EB0120A8827FBD10B5FFF702F88A
:1043F00000216B20FEF79DFE00216C20FEF799FE48
:1044000009211920FEF795FE06211A20FEF791FEDC
:1044100018211B20FEF78DFE1821BDE810401C203E
:10442000FEF787BE70B5094C00252078012800D121
:104430002570207A012800D12572207C012802D025
:1044400000F006F8F1E72574002070BDD8040020C4
:1044500010B588B0FFF750F8FFF7C7FFFFF782FDF0
:104460000021009028A308220846FFF727F902A898
:10447000FFF778FFDDE904014FF00042244B00F024
:1044800033FD0022234B00F087FC00F085FE02463E
:1044900008240223002130200094FFF7EFF9009454
:1044A000BDF90820052310210020FFF7E7F900944B
:1044B000BDF90A20052320210020FFF7DFF9009431
:1044C000BDF90C20052330210020FFF7D7F9009417
:1044D000BDF91820052310213720FFF7CFF90094EC
:1044E000BDF91A20052320213720FFF7C7F90094D2
:1044F000BDF91C20052330213720FFF7BFF9FFF756
:104500005BFA08B010BD000049443A256200000083
:10451000EBDD74400000354010B54FF400610448F5
:10452000FDF770FD04460A20FFF7FEFC204610BD93
:10453000000C014010B5074B4FF4806108B1012217
:1045400000E000221846FDF762FDBDE810400A2099
:10455000FFF7EABC000C014010B5074B4FF40061B7
:1045600008B1012200E000221846FDF750FDBDE829
:1045700010400A20FFF7D8BC000C014070B50025A0
:104580002846FFF7D7FF0120FFF7E6FF002480262B
:104590000120FFF7CFFFFFF7BFFF012802D126FA66
:1045A00004F005430020FFF7C5FF641CE4B2082CAB
:1045B000EED3284670BD10B50120FFF7CDFF0120D6
:1045C000FFF7B8FFFFF7A8FF04460020FFF7B2FF90
:1045D000204610BD70B505460020FFF7ABFF002454
:1045E0005FF0800626FA04F02840FFF7B5FF0120AF
:1045F000FFF7A0FF0020FFF79DFF641CE4B2082C2A
:10460000F0D370BD10B5FFF7A7FF0120FFF792FFB1
:10461000BDE810400020FFF78DBF10B50120FFF767
:104620009BFF0120FFF786FF0020FFF795FFBDE805
:1046300010400020FFF77EBF10B50020FFF78CFF71
:104640000120FFF777FFBDE810400120FFF784BF8E
:104650002DE9F0410127184D184C4FF01E08002697
:104660002078012806D0207A01280DD0207C01284E
:104670001ED012E001210220FFF736FCA8881E2878
:1046800000D3AF80267008E000210220FFF72CFC49
:10469000A88808B9A5F80480267200F077F91023DD
:1046A0001A4630211820FFF71FF8FFF785F9D7E7E2
:1046B00026740020BDE8F08110000020D8040020FE
:1046C0002DE9F041174D1727174C002620780128B7
:1046D00006D0207A01280DD0207C01281ED010E0C1
:1046E00001210320FFF700FCE888182800D3EE80A2
:1046F000267006E0E88878B100210320FFF7F4FB7C
:10470000267200F077F910231A4600211820FEF7D0
:10471000EBFFFFF751F9D9E7EF80F1E726740020AE
:10472000BDE8F08110000020D80400202DE9F04100
:10473000174D3B27174C00262078012806D0207AF9
:1047400001280DD0207C01281ED010E0012104207A
:10475000FFF7CAFB28893C2800D32E81267006E08B
:10476000288978B100210420FFF7BEFB267200F0F3
:1047700041F910231A4619461820FEF7B5FFFFF736
:104780001BF9D9E72F81F1E726740020BDE8F081FD
:1047900010000020D80400202DE9F0410127184D19
:1047A000184C4FF00C0800262078012806D0207AFB
:1047B00001280DD0207C01281ED012E001210846DE
:1047C000FFF792FB68880D2800D36F80267008E001
:1047D00000210120FFF788FB688808B9A5F802804E
:1047E000267200F0D3F810231A4620211820FEF775
:1047F0007BFFFFF7E1F8D7E726740020BDE8F081E2
:1048000010000020D80400202DE9F041174D3B276F
:10481000174C00262078012806D0207A01280DD0D8
:10482000207C01281ED010E001210520FFF75CFB51
:1048300068893C2800D36E81267006E0688978B1CB
:1048400000210520FFF750FB267200F0D3F810235B
:104850001A4620211820FEF747FFFFF7ADF8D9E7E9
:104860006F81F1E726740020BDE8F0811000002080
:10487000D804002070B5124C00252078012806D0FD
:10488000207A012809D0207C012816D00AE00121D5
:104890000020FFF729FB257004E000210846FFF700
:1048A00023FB257200F072F81023202219461820ED
:1048B000FEF71AFFFFF780F8DFE72574002070BDD0
:1048C000D804002070B5214C214D00262078012805
:1048D00008D16878401CC0B26870032801D3012059
:1048E00068702670207A012808D16878401E10F080
:1048F000FF00687001D1022068702672207C0128B8
:104900000ED1FEF7F9FDFFF757F8687826740128F5
:1049100002D0022802D003E0002070BD00F094F81D
:10492000687801280CD00228D0D100F013F81023A9
:10493000602219460020FEF7D7FEFFF73DF8C5E7D5
:1049400000F008F810231A460021F3E7D8040020ED
:104950001C00002008B508481023002100901A46CA
:104960000846FEF72DFF01B00823102103A2002006
:104970005DF804EBFEF7B2BF716F0008C9E8D6C35B
:10498000CAB1BCE4C8D5C6DA0000000038B5114889
:104990001023002100901A460846FEF711FF0E4C26
:1049A0000EA308222088009010210020FEF786FE2A
:1049B000608800900BA3082220210020FEF77EFED5
:1049C000A088009009A3082230210020FEF776FE7F
:1049D00038BD0000716F000810000020C4EA3A25BD
:1049E00030346400D4C23A2530326400C8D53A2548
:1049F0003032640038B50D4C00210DA3E0880090E2
:104A000008220846FEF75AFE208900900AA30822D1
:104A100010210020FEF752FE6089009008A30822B2
:104A200020210020FEF74AFE38BD000010000020C3
:104A3000CAB13A2530326400B7D63A253032640024
:104A4000C3EB3A253032640070B5424D424C00262B
:104A50002878012808D12078401CC0B2207008288E
:104A600001D3012020702E70287A012808D12078E7
:104A7000401E10F0FF00207001D1072020702E7220
:104A8000287C012827D1FEF737FDFEF795FF207817
:104A90002E7401280CD002280CD003280DD0042835
:104AA0000ED005280FD0062810D0072811D012E00C
:104AB000002070BDFFF7DEFE0DE0FFF76DFE0AE09F
:104AC000FFF7C6FD07E0FFF7FBFD04E0FFF72EFE52
:104AD00001E0FFF799FE20780828B9D2DFE800F05E
:104AE00004050A0F141C242CB2E7FEF705FDFFF79E
:104AF0004DFF15E0FEF700FDFFF748FF18E0FEF759
:104B0000FBFCFFF743FF1BE0FEF7F6FCFFF73EFF61
:104B100010231A46302116E0FEF7EEFCFFF76AFF7D
:104B200010231A4600210EE0FEF7E6FCFFF762FFB5
:104B300010231A46194606E0FEF7DEFCFFF75AFF7F
:104B400010231A4620210020FEF7CEFDFEF734FF89
:104B50007EE70000D8040020300000203EB5FEF7BC
:104B600067FC134C13A32088A28861888DE8070096
:104B7000002106220846FEF7A1FDE088628921890E
:104B80008DE8070010210EA30C220846FEF796FDC3
:104B900008230FA230210020FEF7A0FE03B0082357
:104BA000BDE8304030210CA26020FEF797BE000027
:104BB0001000002025642D25642D256400000000D0
:104BC000253032643A253032643A253032640000B0
:104BD000B2CBB5A500000000C9E8D6C300000000B4
:104BE0002DE9F041214E0127214C00253078012884
:104BF00008D16573207B401CC0B22073012800D906
:104C000025733570307A012805D1257325726572B8
:104C1000A57267733572307C01280BD0207B88B178
:104C20000128E3D100F04AF8102320223021E77256
:104C3000082013E0FEF760FCFEF7BEFE357400208E
:104C4000BDE8F08100F03AF8E572607B4FF01003A8
:104C50004FF020024FF0300128B15820FEF744FDFC
:104C6000FEF7AAFEC2E73020F8E70000D8040020D3
:104C70001C0000201048C189491C89B2C1816429E7
:104C800019D30021C181C27A012A14D1027A521C9F
:104C9000D2B202723C2A0ED30172427A521CD2B2B4
:104CA00042723C2A07D34172827A521CD2B282727B
:104CB000632A00D3817270471C0000200EB514488F
:104CC0001023002100901A460846FEF779FD11488E
:104CD00011A3027A417A807A8DE807000822142114
:104CE0002020FEF7EBFC08230FA230211846FEF728
:104CF000F5FD302108230EA20846FEF7EFFD03B0B4
:104D0000082330210CA258205DF804EBFEF7E6BD25
:104D1000716F00081C000020253032643A253032C3
:104D2000643A253032640000BFAACABC000000000B
:104D3000CDA3D6B900000000C7E5B3FD0000000018
:104D400010B500290AD00878002807D00548784413
:104D5000FBF7FCFA002801D0002010BD024878447F
:104D600010BD0000762800006E28000010B5002954
:104D70000AD00878002807D005487844FBF7E6FAFF
:104D8000002801D0002010BD0248784410BD00006A
:104D9000662800005E28000010B591EA030F48BFA6
:104DA00083F0004300F19682841A71EB030C05D264
:104DB000121943EB0C03001B61EB0C01DFF824E13B
:104DC0004FEA1154A4EB135C1EEA430F18BF9EEA8E
:104DD000445F73D023EA0E03DCF1200E21EA045174
:104DE00043F4801332D322FA0CFE10EB0E0023FAA8
:104DF0000CFE41EB0E01CCF1200E03FA0EFE10EB7F
:104E00000E0051F10001B1F5801FCCF1200E32D21D
:104E100001EB045112FA0EF2BDE8104058BF704782
:104E2000401C38BF5FEA420218BF7047002814BF19
:104E300020F0010041F100014FEA410313F5001F8A
:104E400038BF7047A1F1C04100F036BA012A43EBE8
:104E50000302ACF1200CDCF11F0E32BF4FF0000E4C
:104E600023FA0CF310EB030041EB0451B4EB115F98
:104E7000D0D0A1EB045101F5801149085FEA300060
:104E800001EB04510ED350F1000038BF12FA0EFEB0
:104E900008D1BDE81040C9E7401C38BF5FEA4202B4
:104EA000CAD1C3E7BDE810404FEA410313F5001F24
:104EB00038BF7047A1F1C04100F0FEB99EEA445FDF
:104EC00008D011EA5E0FBDE8104004BF01F00041B8
:104ED00000207047BDE8104070B500F09FF900BF9A
:104EE00064FBBE3E0000E0FF2DE9C04130B4DFF8B6
:104EF000A0C23CEA111418BF3CEA131400F0EC8085
:104F000081EA03051CEA111444EAD57418BF1CEAAF
:104F1000131500F0C780A4EB05044FF0004545EAE7
:104F2000C12145EAC32341EA505143EA525304F1F7
:104F30007F74994204F500344FEAC0204FEAC22240
:104F400008BF904200F09C804FEA13650FF24016B4
:104F5000765D4FEA134506FB05F7C7F1807706FB40
:104F600007F74FEAD737A7FB03687642C8F58038C2
:104F7000A7FB06CE38BFA8F1010807FB08E64FF0F3
:104F8000000EA6FB028CE6FB03CEDCF1000CCEF19A
:104F9000004E38BFAEF1010EA6FB0C584FF00007D3
:104FA0004FF00005E6FB0E87A1FB08C6A0FB07CE6D
:104FB00016EB0E0645F10005E1FB076515F1E04E25
:104FC0007EBFA4F580345FEA46066D4116F1800786
:104FD00045F100054FEA17274FEA066647EA0567DD
:104FE000A6F1DE46B6F1805F4FEA15251FD9384697
:104FF00024F0010C05EBC471BCF1FE6F01EB0C1148
:1050000002D8F0BCBDE8008124425CBF01F5801EDF
:105010009EEAC47F02D4F0BCBDE80081244238D4AB
:10502000F0BCA1F1C041BDE8004100F045B94FEA34
:10503000D22242EA43524FEAD323A7FB02864FEA29
:10504000D02040EA415007FB03661EEA0E0F4FEAEC
:10505000D12105FB026658BFA6EB0056B6EB005601
:105060004FEA520E4EEAC37E18EB0E0E56EB530E6D
:10507000BDD518EB02085E417F1C55F10005B6E76F
:105080004FF480154FF000074FF000064FF0000876
:10509000ADE7F0BC4FF0000001F1C04101F000416C
:1050A000BDE8008111EA0C1F0CEA131500D00CE0DA
:1050B00013EA0C1F00F025804FF00000F0BC81EADD
:1050C000030101F00041BDE80081F0BCBDE80041F2
:1050D00081EA030100F0F0B8F0BCBDE8004170B512
:1050E00000F09CF8097EFC3E00F007B881EA03015D
:1050F0004FF0000001F00041704781EA030100F029
:10510000DBB8F0BCBDE800414FF00000214970471A
:10511000FFFDFBF9F7F5F4F2F0EEEDEBE9E8E6E47C
:10512000E3E1E0DEDDDBDAD8D7D5D4D3D1D0CFCD03
:10513000CCCBCAC8C7C6C5C4C2C1C0BFBEBDBCBB3C
:10514000BAB9B8B7B6B5B4B3B2B1B0AFAEADACAB37
:10515000AAA9A8A8A7A6A5A4A3A3A2A1A09F9F9E11
:105160009D9C9C9B9A9999989797969595949393C3
:10517000929191908F8F8E8E8D8C8C8B8B8A89895A
:1051800088888787868585848483838282818180DD
:105190000000FF070000F87F4FEA41034FEA535336
:1051A000A3F58063D3F11E03C8BFD3F1210C0CDD3E
:1051B0004FF0004242EAC12242EA505232FA03FC66
:1051C0008CEAE17CACEBE1707047102BC4BF00208F
:1051D000704703F5787CBCF1FF3F04D06FF00042CC
:1051E00082EA2100704770B500F018F849922480D7
:1051F00000207047F2E7B0FA80F310FA03F10AD00A
:10520000C3F11D0303F580634FEA41504FEA035297
:1052100002EBD12170474FF0000070470EF1020EF3
:105220002EF0030E5EF8046B364205D4012A43EBE0
:10523000030515F5001F12D8012841EB010C1CF5E0
:10524000001F0CD80ED14FEAD17C15F5001F0CEBD6
:105250004C0C0CF1020C08BF4CEBD37C04E04FF07B
:10526000080C01E04FEAD37C0CEB4C0526FA05F65E
:1052700006F00706B6F1040C06D20EEB860CBDE86C
:1052800070404CF0010C6047DFE80CF0090B0202A3
:105290004FF000414FF00000A1F5002170BD19460C
:1052A0001046012851EB010418BFD4F5001484BF47
:1052B000002001F0004170BD0808A0F500114FEA80
:1052C0003101704710B591EA030F48BF83F00043E6
:1052D0003FF56AAD841A71EB030C07D212198CF0FA
:1052E000004C43EB0C03001B61EB0C01DFF8A4E165
:1052F0004FEA1154A4EB135C1EEA430F18BF9EEA59
:10530000445F00F0B08023EA6E03524221EA045168
:10531000C3EB6E0338BF5B1EDCF1200E25D322FAEF
:105320000CFE10EB0E0043FA0CFE41EB0E01CCF12B
:10533000200E03FA0EFE10EB0E0051F10001CCF12D
:10534000200E29D412FA0EF201EB0451BDE81040F0
:1053500058BF7047401C1CBFB2F1004F7047002877
:105360000CBF491C20F00100704712EB020E43EB0A
:10537000030218BF4FF0010E4EEA4202ACF1200CBE
:10538000DCF11E0E54D943FA0CFE10EB0E0051F165
:10539000FF31CCF11E0ED5D50EF1010E12FA0EFE24
:1053A000404141EB010101EB445C5FEA5C5C10D9D8
:1053B00010EBDE7001EB045138BFBEF1004FBDE8C9
:1053C000104018BF704700280CBF491C20F0010096
:1053D000704730D24FEAD42C11F5001124F4006448
:1053E0001BD0B1FA81F20B3AA41AA41ED2F1200309
:1053F000914030FA03F31943904001EBCC71002C3B
:1054000001EB0451BDE81040A8BF704701F1C04155
:105410004FF0000001F000417047B0FA80F310FA3D
:1054200003F100D110BDE41A173C4805C90AE4E7AE
:1054300001EB045110BD491001EB0451BDE81040CF
:105440004FEA300002E04FF0000170474A0008BF09
:105450000042F8D0B2F5001F28BF704701F00041AC
:105460004FF0000070479EEA445F07D011EA5E0FDC
:10547000BDE8104004BF002100207047BDE8104087
:1054800070B5FFF7CBFE00BF40DFF63E83F0004172
:10549000104670470000E0FFFBF7FDBCFBF732BE93
:1054A000010202030405060708090A0B0C0D0E0F82
:1054B0001010010202030405060708090A0B0C0D6F
:1054C0000E0F101000000000000000000102030495
:1054D00006070809000000000102030400000000A4
:1054E000000000000000000000000000000000F8C4
:1054F00000000000000000333000000000160E0025
:10550000160E0000000000000000000040C07840BF
:10551000C0784000043F04043F040400007088FC8D
:1055200008300000001820FF211E0000F008F000E5
:10553000E018000000211C031E211E0000F0088856
:10554000700000001E2123241927211000000016DE
:105550000E0000000000000000000000000000E05D
:105560001804020000000007182040000002041880
:10557000E00000000040201807000000404080F0DC
:10558000804040000202010F01020200000000F012
:10559000000000000101011F0101010000000000E6
:1055A0000000000000B070000000000000000000DB
:1055B00000000000000101010101010100000000E4
:1055C000000000000030300000000000000000007B
:1055D00080601804006018060100000000E0100858
:1055E0000810E000000F102020100F00001010F82D
:1055F000000000000020203F20200000007008086C
:1056000008887000003028242221300000300888EB
:10561000884830000018202020110E000000C02013
:1056200010F8000000070424243F240000F8088834
:10563000880808000019212020110E0000E01088C1
:1056400088180000000F112020110E0000380808F3
:10565000C83808000000003F000000000070880803
:1056600008887000001C222121221C0000E0100884
:105670000810E0000000312222110F00000000C0DD
:10568000C00000000000003030000000000000C03A
:10569000C0000000000080B07000000000008040EA
:1056A0002010080000010204081020004040404083
:1056B00040404000040404040404040000081020D6
:1056C000408000000020100804020100007048081B
:1056D0000808F0000000003036010000C030C82883
:1056E000E810E0000718272423140B000000C0383E
:1056F000E0000000203C23020227382008F88888B8
:1057000088700000203F202020110E00C0300808C3
:1057100008083800071820202010080008F808089A
:105720000810E000203F202020100F0008F8888893
:10573000E8081000203F20202320180008F888885F
:10574000E8081000203F200003000000C0300808D7
:105750000838000007182020221E020008F8080060
:105760000008F808203F210101213F20000808F827
:10577000080800000020203F20200000000008084A
:10578000F8080800C08080807F00000008F888C00A
:1057900028180800203F20012638200008F80800BB
:1057A00000000000203F20202020300008F8F800F2
:1057B000F8F80800203F003F003F200008F830C004
:1057C0000008F808203F200007183F00E0100808F4
:1057D0000810E0000F10202020100F0008F8080823
:1057E0000808F000203F210101010000E010080836
:1057F0000810E0000F18242438504F0008F888885B
:1058000088887000203F2000030C3020007088083A
:10581000080838000038202121221C00180808F848
:10582000080818000000203F2000000008F80800C9
:105830000008F808001F202020201F00087888009A
:1058400000C83808000007380E010000F80800F80A
:105850000008F800033C0700073C030008186880B4
:105860008068180820302C03032C30200838C8002A
:10587000C83808000000203F200000001008080879
:10588000C83808002038262120201800000000FE1B
:10589000020202000000007F40404000000C30C0C7
:1058A00000000000000000010638C00000020202F3
:1058B000FE000000004040407F0000000020100873
:1058C000040810200000000000000000000000009C
:1058D00000000000808080808080808000020408BA
:1058E00000000000000000000000000000008080B8
:1058F000808000000019242222223F2008F8008026
:1059000080000000003F112020110E0000000080E8
:1059100080800000000E1120202011000000008077
:105920008088F800000E112020103F2000008080A9
:1059300080800000001F222222221300008080F0BD
:10594000888888180020203F2020000000008080E8
:1059500080808000006B94949493600008F800802D
:1059600080800000203F210000203F200080989888
:10597000000000000020203F2020000000000080E8
:105980009898000000C08080807F000008F8000028
:1059900080808000203F24022D302000000808F87D
:1059A000000000000020203F202000008080808038
:1059B00080808000203F20003F20003F008080004A
:1059C0008080000000203F2100203F2000008080D8
:1059D00080800000001F202020201F008080008089
:1059E0008000000080FFA12020110E000000008038
:1059F00080808000000E112020A0FF808080800029
:105A00008080800020203F21200001000000808055
:105A1000808080000033242424241900008080E04A
:105A2000808000000000001F202000008080000017
:105A300000808000001F202020103F2080808000F8
:105A40000080808000010E30080601008080008008
:105A5000008080800F300C030C300F00008080002D
:105A6000808080000020312E0E3120008080800058
:105A70000080808080818E70180601000080808008
:105A8000808080000021302C2221300000000000A6
:105A9000807C020200000000003F40400000000047
:105AA000FF00000000000000FF0000000002027C78
:105AB000800000000040403F0000000000804040A7
:105AC00080000080000000000001010000000000D4
:105AD00000000000002F0000000007000700001475
