:020000040800F2
:10000000C83A0020CD0200088D4000089337000850
:10001000853F0008CF1E0008A14C0008000000002A
:100020000000000000000000000000003502000891
:10003000D11E00080000000079020008594900089C
:10004000E7020008E7020008E7020008E7020008EC
:10005000E7020008E7020008E7020008E7020008DC
:10006000E7020008E7020008E7020008E7020008CC
:10007000E7020008E7020008E7020008E7020008BC
:10008000E7020008E7020008E7020008E7020008AC
:10009000E7020008E7020008E7020008E70200089C
:1000A000E7020008E7020008E7020008E70200088C
:1000B000F5490008014A0008E7020008E7020008C5
:1000C000E7020008E7020008E7020008E70200086C
:1000D000E7020008E7020008E7020008E70200085C
:1000E000E7020008E7020008E702000800F002F853
:1000F00000F090F80AA090E8000C82448344AAF132
:100100000107DA4501D100F085F8AFF2090EBAE82F
:100110000F0013F0010F18BFFB1A43F0010318473B
:1001200084A10000A4A10000103A24BF78C878C1BF
:10013000FAD8520724BF30C830C144BF04680C60ED
:10014000704700000023002400250026103A28BF35
:1001500078C1FBD8520728BF30C148BF0B60704739
:100160006E2900F00783702900F04984662907F0A2
:100170003087652907F02D87672907F02A876129CD
:1001800007F0298703681B0A28BF41F0800169290D
:1001900000F0B482642900F0B182752900F0AE82CB
:1001A0006F2900F0D683782900F01584E92900F042
:1001B0007183E42900F06E83F52900F06B83EF2949
:1001C00000F0D383F82900F014840368DB0928BF0A
:1001D00041F08001632901F07781732901F07C816E
:1001E000E32901F08781F32901F08C810020704719
:1001F0001FB501F0DDF904000020002106F014FF16
:10020000401C60600020002106F0F8FEE0601FBD89
:1002100010B510BD01F09EF91146FFF7E9FF05F09A
:10022000C9F801F07BFA03B4FFF7F2FF03BC01F059
:100230007FFA0000224B19680868B0E8F00F80F3DD
:100240000988BFF36F8F4FF0000080F311884EF0E4
:100250000D0E70470000000006480068006880F33B
:10026000088862B661B6BFF34F8FBFF36F8F00DFB0
:1002700000BF00BF08ED00E0EFF30980BFF36F8F10
:100280000F4B1A6820E9F00F106008B54FF05000CE
:1002900080F31188BFF34F8FBFF36F8F06F06AFCB6
:1002A0004FF0000080F31188BDE808401968086825
:1002B000B0E8F00F80F30988BFF36F8F704700BF7D
:1002C000C0000020EFF30580704700000948804718
:1002D00009480047FEE7FEE7FEE7FEE7FEE7FEE728
:1002E000FEE7FEE7FEE7FEE704480549054A064B40
:1002F00070470000F1490008ED000008C8340020F4
:10030000C83A0020C8360020C83600201CB50C466C
:10031000064B7B4469460090204600F044FA0446B0
:100320000020694600F052FA20461CBDB7040000C8
:1003300010B5203AC0F00B80B1E81850203AA0E880
:100340001850B1E81850A0E81850BFF4F5AF5FEAB4
:10035000027C24BFB1E81850A0E8185044BF18C967
:1003600018C0BDE810405FEA827C24BF51F8043B0E
:1003700040F8043B08BF7047D20728BF31F8023B62
:1003800048BF11F8012B28BF20F8023B48BF00F8F6
:10039000012B70474FF0000200B513469446964675
:1003A000203922BFA0E80C50A0E80C50B1F1200188
:1003B000BFF4F7AF090728BFA0E80C5048BF0CC036
:1003C0005DF804EB890028BF40F8042B08BF704794
:1003D00048BF20F8022B11F0804F18BF00F8012B06
:1003E000704700004FF0013C50F8042B51F8043BDB
:1003F0009A4221D1A2EB0C03934313EACC1317D1F9
:1004000050F8042B51F8043B9A4215D1A2EB0C038F
:10041000934313EACC130BD150F8042B51F8043B4F
:100420009A4209D1A2EB0C03934313EACC13DBD01D
:100430004FF00000704700BFD01A01BAB1FA81F145
:1004400001F0180122FA01F0CB40C1F12001DBB22A
:10045000C0B2C01A2CFA01F3D11A914311EAC311A8
:10046000E6D17047014900F099BB00003834002004
:1004700010B503681C1404EB21449BB289B21944E3
:1004800094FBF2F302FB134394FBF2F401EB0343FE
:1004900093FBF2F102FB113193FBF2F301E05B1EDF
:1004A00011440029FBDB016003EB044010BDF0B5F3
:1004B00004464FF0FF3585B00068049060680290F4
:1004C000A0680390E068019020690090666906F1D9
:1004D0008040B0F1004F7CD83C22002104A8FFF7F7
:1004E000C7FF3C22014602A8FFF7C2FF18220146BF
:1004F00003A8FFF7BDFF411E40F2B55201A8FFF768
:10050000B7FF0C22074668460021FFF7B1FF414BB9
:1005100000EB8700304400267B4411E0511A019122
:100520000099491C0229009102D00C2908D105E04C
:10053000810705D00199491C019101E0401C0096FA
:100540000099019A595C9142E8DD0099012906D190
:100550001C2A04D1810702D00221CDE90016A0F1A6
:1005600046018B293CD2DDE90061002202E09F5C5C
:10057000521C3944B242FADB012E02DD820700D060
:10058000491E40F2B55340F26D16C21700EB92724D
:1005900092105A4300F0030303FB062283070A4428
:1005A00000D1521E039E02EB4203049F06EBC303DD
:1005B000029EC3EB031306EB8303174E33441E1452
:1005C0009BB2C6EB0616C3EB0313B60007EB83031F
:1005D00000E005E006EB134666F31F43360C02D03D
:1005E000284605B0F0BD80C4029E40C4039E40C4AE
:1005F000019E761C44F80C6B009E44E902600720C3
:10060000521C92FBF0F600FB162084E823001846EB
:10061000E7E70000199C0000A039CEFD7047704745
:10062000704710B500F016FB006810BD10B5044609
:1006300000F010FB046010BD70B5044685690068C9
:10064000C10601D5302600E02026C00707D070BDC6
:10065000D4E9012130469047206A401C20626D1E7B
:10066000F6D570BD70B5044685690078C00707D11E
:1006700070BDD4E9012120209047206A401C2062EF
:100680006D1EF6D570BD09684A0501D540B27047A8
:10069000C905FCD500B2704709684A0501D5C0B24A
:1006A0007047C905FCD580B2704770B50C46054649
:1006B000012A05D02878800600D5EA69002302E0E7
:1006C000012305E05B1C934202D2E05C0028F9D1D3
:1006D000A869E618C01AA861286A18442862284642
:1006E000FFF7AAFF04E0D5E9012114F8010B9047B8
:1006F000B442F8D32846FFF7B5FF70BD2DE9F041AD
:100700000646002410687529314616A510D0FFF75B
:10071000BAFF002802DA404213A507E031688A07D1
:1007200001D512A502E0490704D511A5012401E075
:10073000FFF7B2FF00210A2206F1240709E0B0FB0F
:10074000F2FCB0FBF2F302FB1C0030307854184688
:10075000491C0028F3D123462A463046BDE8F04123
:1007600000F0C1BA000000002D0000002B000000C6
:100770002000000011680268006A530501D5087066
:100780000AE0D30501D5088006E0130603D5C21799
:10079000C1E9000200E008600120704701694A1CBD
:1007A00002610878704700B58FB0CDE901310021B2
:1007B000059105497944CDE903101146684600F0DA
:1007C00029F90FB000BD0000E5FFFFFF0A6802F83D
:1007D000010B0A60704700002DE9FF5F15468A464D
:1007E0000446DFF8AC80F8440027D8E900103E4604
:1007F000CDE9001010E03AF816106A4602A800F0A1
:1008000085FE411C07D02178890603D5E269391895
:1008100091420DD80744761C2078800602D5E06905
:10082000B84205DDAE42E6DB3AF816000028E2D118
:10083000A069C01BA0612046FFF7FEFED8E90010AA
:10084000CDE90010002017E03AF818106A4602A817
:1008500000F05CFEB0F1FF3F81460BD000250DF1AA
:10086000080B05E0D4E901211BF8050090476D1C39
:100870004D45F7D308F10100B0428046E4DB206A21
:10088000384420622046FFF7EDFEBDE8FF9F0000E0
:100890000A9900002DE9F0418046D21D22F007029E
:1008A0000025D2E90002F52915A614D0011E72F127
:1008B000000106DA0023D0EB030063EB020211A66D
:1008C00008E0D8F800108B0701D50FA602E0490711
:1008D00001D50EA601251146002408F1240704E0E5
:1008E00000F0BCF930323A55641C50EA0102F7D1ED
:1008F0002B46324621464046BDE8F04100F0F3B9B0
:10090000000000002D0000002B000000200000006F
:1009100030B4002100F1240408E002F00705D208F9
:10092000303542EA4372DB086554491C52EA03053C
:10093000F3D10468002310A2250707D5A40600D42C
:1009400021B1C46901230DA2641EC46130BC00F052
:10095000CAB910B5044621461068FFF79DFE02464D
:100960002046BDE810400023D2E7D21D22F0070147
:10097000D1E90023CCE700000000000030000000B7
:10098000F0B40D460188090502D5214C7C4402E0F3
:100990001F4C7C440E34002100F1240608E002F0D4
:1009A0000F071209E75D42EA03721B097754491CDD
:1009B00052EA0307F3D102780023120704D5702D01
:1009C00006D009B1022311342246F0BC00F08BB9E5
:1009D00001231034F8E770B504460D46214610682F
:1009E000FFF75AFE024629462046BDE87040002324
:1009F000C6E7D21D22F00703D3E90023C0E703684E
:100A0000126843F0200303600823C3610023B7E7A3
:100A10006C9700002DE9F05F894604464FF0000A0C
:100A2000DFF874B1FB44C0F820A02046E168884795
:100A3000002874D0252806D0D4E901219047206AE7
:100A4000401C2062F1E700265F462046E1688847A7
:100A50002028054607DB312D05D2781910F8200C27
:100A600008B10643F1E7B00701D526F00406C4F843
:100A70001CA00027C4F818A02A2D09D0284604F08D
:100A800097F938B304EB8708303DC8F8185019E0DF
:100A900059F8041B204604EB87029161E1688847FE
:100AA000012F054618D1E069002820DA26F020063B
:100AB0001DE0D8F8180000EB800005EB400030384E
:100AC000C8F818002046E1688847054604F070F928
:100AD0000028EED1012F0AD02E2D08D12046E16842
:100AE00088477F1C0546022F46F02006C4DBA0691C
:100AF000002803DA404246F00106A061F00701D069
:100B000026F010066C2D0BD0682D09D04C2D39D055
:100B10006A2D35D0742D35D07A2D33D016E038E0DB
:100B2000E1682F4620468847B842054609D16C2F18
:100B300026D04FF48060E16806432046884705468A
:100B400004E06C2F1AD04FF4807006430DB3A5F16A
:100B50004100192802D8203546F400664A46294645
:100B6000204626604E46FFF7FBFA80B101280BD0E5
:100B7000F61D26F0070000F1080956E74020E4E7DB
:100B80008020D8E70020D6E706F104094DE7284683
:100B900052E7206ABDE8F09FFC96000070B50C4655
:100BA000016800204A1C3ED03C22B1FBF2F302FB5C
:100BB0001313B1FBF2F12360B1FBF2F302FB131349
:100BC000B1FBF2F118226360B1FBF2F302FB1313E5
:100BD000B1FBF2F146F2E0320A440721A360B2FB16
:100BE000F1F301FB132140F2B553B2FBF3F5A16120
:100BF000B2FBF3F103FB15228900B2F5B77F08D3EE
:100C00009B10521EB2FBF3F52944B2FBF3F503FB34
:100C100015220F4BE261616189077B440CD03B2AAE
:100C20000AD3521C08E02C212046FFF7B3FB012019
:100C3000E0600AE0521A401C195C9142FAD9521C39
:100C4000C4E903204FF0FF302062204670BD000051
:100C500017950000004870476434002030B5B0F1AB
:100C60000A024FEA900E71F100034EEA817EB0EB6A
:100C70000E0061EB91014FEA101E4EEA017E10EB6F
:100C80000E0041EB11114FEA102E4EEA016E10EBEF
:100C90000E0041EB11214FEA104E4EEA014E10EBCF
:100CA0000E0041EB1141401841F100014FEAD00024
:100CB00040EA41704FEAD10110EB80054FEA810410
:100CC00044EA907444EB01046D1944EB0404521B94
:100CD000A3414FF0000348BF0A3200D530BD401C8D
:100CE00041F1000130BD2DE9F0470D46994692468D
:100CF000044600F124080168880604D5E06921F063
:100D00001001216000E00120A84201DD471B00E046
:100D10000027A1697A1902EB0900081AA06120785E
:100D2000C00602D42046FFF787FC002608E0D4E97D
:100D300001211AF806009047206A401C761C2062A8
:100D40004E45F4DB2078C0060AD52046FFF774FC38
:100D500006E0D4E9012130209047206A401C20623F
:100D6000381EA7F10107F4DC07E0D4E9012118F8E7
:100D700005009047206A401C2062281EA5F101054D
:100D8000F3DC2046FFF76EFC2078000602D5022037
:100D9000BDE8F0870120FBE770472DE9FF4F0C46C7
:100DA0001E464FF0FF378BB0D2E90001DDF86080BE
:100DB0000A908A46C1F30A5505B93D460021084606
:100DC0004FF00000BAF1000F00F4400005DA00EB2C
:100DD00080004FF4400101EA50004FEA9059B9F108
:100DE000010F00DDB9460A9850EA4A000ED044F6D9
:100DF0001050A5F2FF3545432F14B8F1000F1ED057
:100E00007542291E1EDDC9F100021CE0B8F1010F78
:100E10004FF0000001D0302103E0F24305E02154FF
:100E2000401CB042FBDB30460022002121540B99CC
:100E3000C1F80880C1E900200FB0BDE8F08FBD1BEC
:100E40006D1CDEE74A4600DA694206A800F0F4FBB2
:100E500006AB93E8070003AB83E8070050460A9906
:100E600000F06DFC8DE80700A0F500501F380090E1
:100E70000398002D0ADD42F21F014A460844002370
:100E800003A90390684600F0D6FE09E0A0F50050E3
:100E90004A461F38002303A90390684600F0E0FE8D
:100EA0008DE807000004000C03D04FF0FF3041082C
:100EB00000E01046B8F1000F03D000220092154662
:100EC0001EE0751E05D4FFF7C9FE303262556D1E57
:100ED000F9D5B3460122084302D000227F1C04E06A
:100EE0002078302801D100227F1E002A099784D063
:100EF0001DE0112D07DAFFF7B1FE303262556D1C8F
:100F000050EA0102F5D1084302D00098C8B10EE0C2
:100F10000021681E05E0235C625C63542254401E7D
:100F2000491C8142F7DBAB46A81B401E09900020FC
:100F300004F80B000B98099AC0F80880C0E9002B50
:100F40007AE711264FF0000857E72DE9F04F884661
:100F50000446D21D22F0070191B0D1E90001CDE98C
:100F60000A0103F09EFE02460B98C00F01D02D200F
:100F700007E02068810701D52B2002E0202101EA4B
:100F8000C000032A099001D0072A05DB0346414629
:100F9000204600F011FB0BE12078800601D5E069C6
:100FA00000E00620B8F1650F814606D0B8F1660F63
:100FB00018D0B8F1670F70D131E00020B9F1110FEE
:100FC000009001DB112301E009F101030AAA01A944
:100FD0000CA8FFF7E2FEDDE90C70002609F101051F
:100FE000834647E001204B4600904FF000470AAA95
:100FF00001A90CA8FFF7D1FEDDE90DB00C995D4603
:10100000002610B909F101000D18B9EB050003D451
:10101000C0F1FF3609F10105A5EB09002BE0B9F19C
:10102000010F01DA4FF001090020B9F1110F009012
:10103000484601DD112300E003460AAA01A90CA8D5
:10104000FFF7ABFEDDE90C704D46002683462078A5
:1010500000070AD4AB4500DA5D4601A8012D04DD86
:10106000411911F8011C302907D04F4502DA17F158
:10107000040F04DA012082460FE06D1EEEE7002F18
:1010800002DCED1B3E4403E0781CA84200DD7D1C21
:10109000B81B00F1010A4FF000472078000703D485
:1010A000AA4501DB4FF0FF3A0021B7F1004F0DF1E7
:1010B00043088DF8431024D002202B23002F01DA9F
:1010C0007F422D230A21021EA0F1010000DC5FB146
:1010D00097FBF1FC97FBF1F201FB1C7C17460CF12E
:1010E000300C08F801CDEEE7A8F10100037021886B
:1010F000090501D5452100E06521A0F1010800F8AE
:10110000011C09980FA9A1EB0807FF1D00B10120E0
:10111000411901EBEA70A1693844081A401EA06128
:101120002078C00602D42046FFF786FA099828B135
:10113000D4E901219047206A401C20622078C00633
:1011400022D52046FFF778FA1EE0002E04DBB345D7
:1011500002DD01A8805D00E03020D4E90121904744
:10116000206A401C2062761CAAF101005FEA000A96
:101170000AD100F01DFAC0680168405CD4E9012181
:101180009047206A401C2062281EA5F10105DCDC86
:1011900007E0D4E9012118F8010B9047206A401CB0
:1011A0002062381EA7F10107F3DC2046FFF75AFA48
:1011B000032011B041E600002DE9F04F04460D4632
:1011C000D21D22F0070089B0D0E900974846394681
:1011D00003F067FD0246F80F01D02D2307E02068D9
:1011E000810701D52B2302E0202101EAC0038DF8FD
:1011F00020300BB1012000E00020032A824601D0FC
:10120000072A04DB2946204600F0D6F93FE1207882
:10121000800601D40D2500E0E569C7F30A560D2DBF
:1012200049DA00214FEA175B08464FF00000002F13
:1012300000F4400007DA00EB80004FF4400100EBBF
:10124000D07001EA60008115012901DD4FF0FF3106
:1012500000224FEA850CBCF1180F06D31346ACF1FF
:1012600018004FF08052C24003E04FF4801323FA7D
:101270000CF30CF10C0CBCF1200F04D3ACF1200CDE
:1012800009FA0CF001E007FA0CF000294FF00048D1
:1012900001DD18B90FE00ED140450CD319EB02095E
:1012A0005F4121B9404502D19F4329EA0209BBEBC6
:1012B000175F00D0761C2088000502D57B48784453
:1012C00002E07A487844193808AA302302F80A3034
:1012D000037C0AF10101002E0AF1020A53546A4606
:1012E00002DC4FF0300101E04FF031014FF0010816
:1012F0008DF8001002D0A6F2FF3603E059EA47014C
:1013000000D06B4E002D02DC2178090704D54FF088
:1013100002082E218DF80110C44600210BE0C7F30E
:1013200003433F01C35C491C6D1E02F808300529C8
:1013300008F1010801DA002DF1DC00210CE000EBDE
:101340001973491C1B786D1E082902F808304FEAF2
:10135000091908F1010801DA002DF0DC21688B067B
:1013600002D516E0A8F10108E04505DD02EB08030F
:1013700013F8013C302BF5D0B8F1000F09DD02EB7A
:10138000080313F8013C2E2B03D1090701D4A8F15F
:101390000108002D05DD3E2102F808106D1E08F140
:1013A0000108407C002E02F8080008F1010804DA68
:1013B0002D20764202F8080002E02B2002F80800F7
:1013C0000A214FF47A70864208F101080BDB96FB84
:1013D000F0F3303302F8083096FBF0F308F101081F
:1013E00000FB136601E0642E0CDB642096FBF0F337
:1013F000303302F8083096FBF0F308F1010800FBE7
:10140000136601E00A2E06DB96FBF1F0303002F89D
:10141000080008F1010896FBF1F001FB1060303084
:1014200002F80800A16908F1010808EB050202EBC7
:101430000A00081AA0612078C00602D42046FFF7EF
:10144000FBF8216A08AE01EB0A00206204E0D4E94F
:10145000012116F8010B9047BAF1010AF7D2207862
:10146000C00602D52046FFF7E7F86E4609E016F8F9
:10147000010B3E280FD0D4E901219047206A401C7F
:101480002062B8F10108F2D22046FFF7EBF809B06C
:101490000320BDE8F08F206A2844206203E0D4E9ED
:1014A0000121302090476D1EEBD3F8E7398F000003
:1014B00002FCFFFF10B5436913B1AFF3008001E0F8
:1014C000FFF7F3F8012010BD127800F124010A7033
:1014D00000224A700122EDE711684FF0FF32E9E780
:1014E00010B5436913B1AFF3008001E0FFF774F961
:1014F000012010BD128800F1240182840022C284E0
:101500000122EDE711684FF0FF32E9E770B51646AA
:101510000C46054600F044F8036893F801010128E1
:1015200006D0FF2C0FD8185D68B101202C7070BD5B
:10153000D3F807013246214603F207130344284635
:10154000BDE8704018474FF0FF3070BD004870474D
:10155000643400207546FFF7F9FFAE460500694682
:10156000534620F00700854618B020B5FEF7BCFEB4
:10157000BDE820404FF000064FF000074FF0000894
:101580004FF0000B21F00701AC46ACE8C009ACE815
:10159000C009ACE8C009ACE8C0098D46704700003E
:1015A00010B500F005F8001D10BD00BF7D5A000009
:1015B00000487047843400202DE9F0411F4604465E
:1015C00003260168072A01F4006004DB08B116A5B0
:1015D00005E016A503E008B115A500E015A521F06A
:1015E00010002060A069C01EA0610FB1401EA06164
:1015F0002046FFF721F84FB1D4E901213846904742
:10160000206A401C2062C01C206206E0206AFAE7C3
:10161000D4E9012115F8010B9047761EF8D2204637
:10162000FFF720F8BDE8F0814E414E006E616E007C
:10163000494E4600696E66002DE9F0478146164620
:101640008AB0354878440DC88DE80D00324878449A
:10165000801C03AC0DC884E80D0041F69B300844A3
:10166000372190FBF1F290FBF1F5A5F1800501FB2C
:1016700012041B3C02D56442012000E00020DFF888
:1016800098A080460027FA44AAF1BE0A0EE0E007BF
:101690000AD03246684607EB470101230AEB810175
:1016A00000F0DEFA8DE8070064107F1C002CEED1FC
:1016B000194F7F44AE3F19E0E80715D007EB04103F
:1016C0000DF1180A90E80E008AE80E00C068F0429A
:1016D00001D1981908903246012306A903A800F009
:1016E000BFFA03AB83E807006D10641C002DE3D143
:1016F0004FF0010332466946B8F1000F03A802D04B
:1017000000F099FA01E000F0ABFAC9E90001C9F86C
:1017100008200AB0BDE8F087448C000010B50446EC
:10172000AFF300802046BDE81040FEF77CBD00000E
:1017300001491820ABBEFEE72600020070475FEAB1
:10174000400C08BF91F0000F4FEA8C234FEAC122F2
:1017500043EA51514FEA1C5018BF00F5F0404FEAE0
:10176000300018BF41F000415FEA6C5C00F0298056
:10177000BCF1FF3F08BF40F080407047130C06BF2C
:1017800012044FF0100C4FF0000C130E04BF1202A5
:101790000CF1080C130F04BF12010CF1040C930F91
:1017A00004BF92000CF1020CD30F04BF52000CF1E5
:1017B000010C11464FF00002A0F11F00A0EB0C003D
:1017C000704711F0004F08BF704731F000413FF4FF
:1017D000D5AF0B0C06BF09044FF0100C4FF0000CF6
:1017E0000B0E04BF09020CF1080C0B0F04BF09011A
:1017F0000CF1040C8B0F04BF89000CF1020CCB0F11
:1018000004BF49000CF1010CCCF12003A0EB0C004B
:1018100022FA03F302FA0CF241EA030100F101009B
:10182000704720F07F4C80EA030023F07F47ACEB49
:10183000070303F57C5300F0004003F1FF032DE99B
:1018400080494FEA154B09B44FEA144325EA0B4E81
:1018500024EA03480FF2042606EB132749083E78D2
:101860005FEA320203FB0667C7F5000707FB06F6CF
:101870004FEA54374FEAD64606F1020607FB066CDC
:10188000CCF1005C4FEA1C472CEA074C07FB06F43E
:101890000CFB06F504EB15464FEA961634BF002004
:1018A0004FF000404FEAD13706FB07FC4FEA1C4CD3
:1018B0000CFB0BF7D21B03FB0CF761EB07010CFBD6
:1018C0000EF7B0EB074072EB17420CFB08F734BF82
:1018D000A2EB0742B2EB074261EB17414FEA0C441F
:1018E0004FEA910706FB07FC4FEA1C4C0CFB0BF779
:1018F000B0EBC74072EB573203FB0CF734BFA2EBDF
:10190000C742B2EBC74261EB57310CFB0EF7B0EBAD
:10191000C70072EB57720CFB08F734BFA2EBC7028B
:10192000B2EBC70261EB5771039F4FEA816141EA55
:10193000921104EBCC044FEAD1374FEA826206FBE6
:1019400007FC42EA90124FEA80604FEA1C4C0CFB05
:101950000BF7D21B03FB0CF761EB07010CFB0EF737
:10196000B0EB074072EB17420CFB08F734BFA2EB59
:101970000742B2EB074261EB17414FEA8C554FEA41
:10198000910704EB9C2406FB07FC4FEA1C4C0CFB64
:101990000BF7B0EBC74072EB573203FB0CF734BFC9
:1019A000A2EBC742B2EBC74261EB57310CFB0EF71B
:1019B000B0EBC70072EB57720CFB08F734BFA2EB19
:1019C000C702B2EBC70261EB577115EB4C254FEA2A
:1019D000816141EA92114FEA82624FEAD13742EACD
:1019E000901206FB07FC44F100044FEA80604FEAC6
:1019F0001C4C0CFB0BF7D21B03FB0CF761EB070134
:101A00000CFB0EF7B0EB074072EB17420CFB08F72C
:101A100034BFA2EB0742B2EB074261EB174115EB73
:101A20001C154FEA813141EA92414FEA823242EA83
:101A300090424FEA80304FEA0C7644F1000448EAC5
:101A400003434EEA0B484FF0000EB2EB080C71EB6B
:101A5000030724BF624639464EEB0E0E4FF0000BD3
:101A60000018524149414BEB0B0BB2EB080C71EBE8
:101A700003077BF1000B24BF624639464EEB0E0E86
:101A80004FF0000B0018524149414BEB0B0BB2EBEE
:101A9000080C71EB03077BF1000B24BF624639464B
:101AA0004EEB0E0E51EA020718BF46F0010616EB88
:101AB0000E7655F1000254F1000103D5BDE889010D
:101AC000BDE80088BDE88901BDE80048B61952416B
:101AD00041EB0101A3F10103704780807F7E7D7C93
:101AE0007B7A7978777676757473727171706F6EB0
:101AF0006E6D6C6C6B6A6A6968686766666564645B
:101B0000636362616160605F5F5E5E5D5D5C5C5BE4
:101B10005B5A5A5959585857575656555555545453
:101B2000535352525251515050504F4F4F4E4E4DB1
:101B30004D4D4C4C4C4B4B4B4A4A4A4949494848FD
:101B4000484747474746464645454544444444433D
:101B500043434342424242414141002B9C4630D4E0
:101B600077002BD01CB54FEA370703B44FF01000B5
:101B70004FF01001BAF1000F06D0BCF1000FDCBF2E
:101B800040F0080040F008014FF000000FBCBDE835
:101B900010400BF1010BBBF1010F08BF5FEA170703
:101BA00022BF12F1010211F101014FF0004143F196
:101BB000000300F0004043EA00007047F9D35708E3
:101BC000D0E746EA064613F1400F4FEA16461FDDFE
:101BD00013F1200FDFBF16430A46002120335B427A
:101BE000BED0C3F1200746EA064602FA07F74FEADD
:101BF000164646EA0706C3F1200722FA03F201FA65
:101C000007F721FA03F14FF0000342EA0702A7E7C2
:101C100046EA020646EA06464FEA164646EA010644
:101C2000BCBF46EA0646360C4FF000034FF00002F8
:101C30004FF0000194E72DE9804C9A46934670B42A
:101C400091E8380007C831EA400C48BF34EA430C39
:101C500003D5FFF7E6FDFFF780FFF0BCBDE8008C81
:101C60002DE9804C9A46934670B491E8380007C835
:101C700010F0804F08BF13F0804F03D100F005F83B
:101C8000FFF76BFFF0BCBDE8008C20F07F4780EAD7
:101C9000030023F07F4C07EB0C03A3F57C5300F00B
:101CA0000040A3F1FE0392F0000F00F0B38095F026
:101CB000000F00F077802DE901494FEA11404FEA0B
:101CC000144621EA004800FB06FC24EA064708FB0C
:101CD00006F607FB08F800FB07F718EB06484CEB85
:101CE000164C4FEA124B18EB07484FEA15464CEBDF
:101CF000174022EA0B4E0BFB06FC25EA06470EFBBB
:101D000006F607FB0EFE0BFB07F71EEB064E4CEB31
:101D1000164C4FF000061EEB074E4CEB174B18EB22
:101D20000B0840F1000018EB0E0B58EB000840F1D7
:101D300000008F1A4FF000013CBFC943661B14BF5F
:101D4000B5EB040C00213CBFC943F61B4FEA174416
:101D50004EEA8E0E27EA04454FEA1C4704FB076251
:101D60002CEA074C05FB07F70CFB05F604FB0CFC03
:101D700016EB074642EB174216EB0C4642EB1C42B1
:101D80001BEB060658EB0202414146EA9E0601D5CE
:101D9000BDE80189B619524141EB0101A3F10103EC
:101DA000BDE801894FEA14454FEA114724EA054688
:101DB00021EA074C05FB07F406FB07F70CFB06F1CD
:101DC00005FB0CFC11EB074144EB17444FEA1247AB
:101DD00011EB0C4144EB1C4422EA074C05FB07F2D3
:101DE00006FB07F70CFB06F605FB0CFC16EB07469B
:101DF00042EB174216EB0C4642EB1C456A1854F1B5
:101E0000000148BF7047B619524141EB0101A3F1EF
:101E10000103704795F0000F37D04FEA11424FEAA7
:101E2000144721EA024624EA074C02FB07F106FBAD
:101E300007F70CFB06F402FB0CFC14EB074441EB28
:101E400017414FEA154714EB0C4441EB1C4125EABE
:101E5000074C02FB07F506FB07F70CFB06F602FB37
:101E60000CFC16EB074645EB174516EB0C4645EB0D
:101E70001C42121951F1000148BF7047B619524176
:101E800041EB0101A3F1010370474FEA14454FEA0A
:101E9000114724EA054621EA074C05FB07F106FB3A
:101EA00007F70CFB06F24FF0000605FB0CFC12EBEB
:101EB000074241EB174112EB0C4251EB1C4148BF6A
:101EC0007047921841EB0101A3F101037047FEE74F
:101ED000704772B6FEE7000070B5044600F008F9DE
:101EE0000546601C02D004480078044400F000F964
:101EF000401BA042FAD370BD140000202DE9F84F1A
:101F0000DFF8B8910024A9F1040B23460F2709F14B
:101F1000040AABF1040EC9E00125A5402A40AA42FB
:101F20007DD1674ED1F804C0ACEB0608B44532D081
:101F300014DCBCF1030F3AD009DCBCF1000F2AD04D
:101F4000BCF1010F1CD0BCF1020F31D11DE0BCF17E
:101F5000110F17D0BCF1120F2AD119E0B8F5881F64
:101F600019D006DCB8F5803F15D0B8F5801F1FD119
:101F700011E0B8F5001F0ED0B8F5041F18D10AE023
:101F8000CB6815E0CB681B1D12E0CB6808330FE06F
:101F9000CB680C330CE08B682BB1012B4FF008039E
:101FA00003D0456104E0042302E0056100E0002362
:101FB000FF2A01D8064601E000F104064FEA840535
:101FC00001D9A5F12005D6F8008007FA05FC28EA1A
:101FD0000C0803FA05F548EA0508C6F800804D68C4
:101FE000ED0062D5374DAE6946F00106AE61AD69D0
:101FF00024F0030605F001050095334D06EB050CB2
:10200000DCF80850A607360F07FA06F825EA080597
:10201000DFF8B880404503D14FF0000817E044E0F6
:10202000DFF8AC80404502D14FF001080FE0DFF847
:10203000A480404502D14FF0020808E0DFF8988004
:10204000404502D14FF0030801E04FF0040808FAC0
:1020500006F848EA0508CCF808804D68D9F8006011
:10206000ED024D4601D5164300E096432E604D68C3
:10207000DAF80060AD02554601D5164300E09643FC
:102080002E604D68DBF80060AD035D4601D5164358
:1020900000E096432E604D68DEF80060ED03754663
:1020A00001D5164300E096432E60641C0D682A4655
:1020B000E5407FF431AFBDE8F88F0000080401402F
:1020C0000000111000100240000001400008014013
:1020D000000C0140001001400014014080680840DD
:1020E00000D0012070470AB1016170470904FBE785
:1020F00001488068704700001400002070B504009B
:1021000025D094F83D00002520B984F83C502046A5
:1021100000F07EFA242084F83D002068016821F058
:10212000010101602068016841F4004101602068FC
:10213000016821F40041016000F09CFC4D4A616897
:10214000914201D84C4900E04C49884201D201201B
:1021500070BD4B492368B0FBF1F15E6826F03F0685
:102160000E435E606368934206D94FF496735943F9
:102170004FF47A73B1FBF3F12368491C1E6A26F011
:102180003F06314319626168914210D84900401EF0
:10219000B0FBF1F2521CC2F30B02042A01D204205C
:1021A00022E0B0FBF1F0401CC0F30B001CE0A26881
:1021B000F2B301EBC10303EB0116431EB3FBF6F3CD
:1021C0005B1C43F480431B0549D092B301EBC10271
:1021D00002EB0111401EB0FBF1F0401CC0F30B00FC
:1021E00040F4804040F400402168CA694CF6FF7317
:1021F0009A431043C861D4E907100143206802687C
:1022000022F0C00211430160D4E9030101432068B8
:10221000826848F2FF339A4311438160D4E9050193
:1022200008432168CA6822F0FF021043C86001E039
:102230000EE016E02068016841F0010101602564AC
:10224000202084F83D00256384F83E50002070BDB6
:1022500001EB4106431EB3FBF6F35B1CB3E7012021
:10226000C2E701EB4101401EB0FBF1F0401CC0F39E
:102270000B00B7E7A086010080841E0000093D0026
:1022800040420F002DE9FF4F83B00025DDE91079B2
:102290009A4693460446DDF848800095FFF728FFEC
:1022A000064694F83D0020287CD119230122884954
:1022B0002046009601F084FB0028F5D194F83C00FC
:1022C00001286FD0012084F83C0020680168C9070C
:1022D00003D1016841F0010101602068016821F427
:1022E00000610160222084F83D00402084F83E0017
:1022F00025646762A4F82A90608D20857548E062A5
:10230000CDE9008653465A462046049901F05AFA10
:1023100000287CD1208DDFF8C091202768B10128EA
:1023200014D00228206801681ED041F48061016049
:102330002068416980690090BCE02068416981693A
:102340000091016841F400710160B3E02068016808
:1023500021F48061016072B6206841698169009151
:10236000016841F400710AE041F40061016072B655
:102370002068416981690091016821F480610160F0
:1023800062B697E0032865D801280CD0022843469E
:102390004FF000024946204600960BD001F010FB9A
:1023A000A8BB0CE091E032464146204601F0AEFB6E
:1023B00068BB72E001F004FB48BB72B633E02068F2
:1023C000016821F48061016072B620680069616A69
:1023D0000870606A401C6062208D401E2085608D00
:1023E000401E60853D4846F2A8110068B0FBF1F040
:1023F000C0EBC00000EB80000090401E009007D0B2
:1024000020684069C04340070DD50098F5E727E0F4
:1024100044F8305F6773A573206940F020002061A5
:1024200062B625731CE02068016841F40071016008
:1024300020680069616A0870606A401C6062218DD2
:10244000491E2185618D491E618562B62168096931
:10245000017026E032464146204601F057FB18B194
:10246000012007B0BDE8F08F20680069616A08703C
:10247000606A401C6062208D401E81B22185608DA3
:10248000401E608520684269D243520712D4032956
:1024900003D1016821F48061016020680069616AEC
:1024A0000870606A401C6062208D401E2085608D2F
:1024B000401E6085208D00287FF464AF84F83D7055
:1024C00084F83E5084F83C50CBE70220C9E7000076
:1024D000020010000000FFFF0400010020000020A7
:1024E0002DE9FF4F83B09A46DDE9119793460446E4
:1024F000DDF84080FFF7FCFD054694F83D002028FC
:102500007FD11923012240492046009501F058FA55
:10251000002876D194F83C00012872D0012084F87C
:102520003C0020680168C90703D1016841F001013E
:1025300001602068016821F400610160212084F8B5
:102540003D00402084F83E0000262664C4F8248024
:10255000A4F82A90608D20852C48E062CDE90075B2
:1025600053465A462046049901F0AAF970B930E062
:102570002A463946204601F001FB58B1206C042858
:1025800004D12068016841F400710160012007B0A6
:10259000BDE8F08F606A216800780861606A401CBD
:1025A0006062218D491E89B22185628D521E62852D
:1025B00022685369DB435B070BD469B10078106173
:1025C000606A401C6062208D401E2085608D401E28
:1025D0006085208D0028CBD12A463946204601F05F
:1025E000C3F90028CAD154F83D0B016841F40071C9
:1025F0000160202004F81E09E67766770020C6E710
:10260000FFE70220C3E70000020010000000FFFF08
:1026100010B586B0002100910191029103910068EC
:10262000104988421BD1104CA06940F00800A061FD
:10263000A069694600F0080004904FF440600090E3
:1026400012200190032003900848FFF757FCE0692F
:1026500040F48000E061E06900F48000049006B07E
:1026600010BD00000058004000100240000C014066
:10267000024881680278114481607047140000208C
:10268000074810B5016841F010010160032000F017
:102690007BF80F2000F006F800F024F8002010BDB1
:1026A0000020024070B50D4D04464FF47A71287831
:1026B000B1FBF0F00A490968B1FBF0F000F0F9FC59
:1026C00048B9102C07D200222146501E00F03CF8D9
:1026D00000206C6070BD012070BD0000140000205F
:1026E000200000200F4808B5816941F00101816197
:1026F000816901F001010091C16941F08051C1611E
:10270000C069002200F0805000900F21901E00F060
:102710001BF80548416821F0E06141F0007141601B
:1027200008BD00000010024000000140002809DB45
:1027300000F01F02012191404009800000F1E020DB
:10274000C0F8001170470000F0B40E4B1B680C4637
:10275000C3F30223C3F10705042D00D90425191D75
:10276000072901D2002300E0DB1E012606FA05F14D
:10277000491E214099409E40761E16403143F0BCD0
:1027800002F0A3BA0CED00E0064900F00702086869
:102790004FF6FF03184040EA0220034A1043086046
:1027A000704700000CED00E00000FA05014901202F
:1027B0000862704700000E4210B501460020234C0D
:1027C000012922D0022939D010291DD1616822683F
:1027D000D20119D51E48C1F38342C903805C0AD5D2
:1027E00061681B4AC1F34041921E515C194AB2FB19
:1027F000F1F1484301E0184948436168490203D4B4
:1028000040000321B0FBF1F010BD226AC2F30121A8
:10281000012903D1920701D5C80310BD022905D1B2
:10282000626A920702D549F6404010BD0329FCD1E7
:1028300021688903F9D54FF2244010BD00F02AF930
:102840006168C1F38131491C4900DBE70010024097
:10285000DE80000800127A0000093D002DE9F843EF
:1028600005460078354CC00754D0E0690026C0000A
:1028700008D4E06940F08050E061E069012600F092
:10288000805000902E480168C90512D40168804626
:1028900041F480710160FFF72BFC074605E000BFA3
:1028A000FFF726FCC01B642823D8D8F80000C00519
:1028B000F6D5206A10F4407021D0A98801F4407147
:1028C00081421CD0206A1F49012220F440700A6016
:1028D00000220A602062C00711D0FFF709FC0746FA
:1028E00041F2883808E000BFFFF702FCC11B4145F8
:1028F00002D90320BDE8F883206A8007F4D5206A56
:10290000696820F44070084320621EB1E06920F03D
:102910008050E0612878800705D56068A96820F4B8
:102920004040084360602878C00605D56068E968C3
:1029300020F48000084360600020DBE700100240C4
:1029400000700040400442422DE9F0470F46050068
:1029500061D0434E306800F00700B84209D23068B9
:1029600020F0070038433060306800F00700B842BC
:1029700051D128683B4C810712D5400703D56068C8
:1029800040F4E06060602878000703D5606840F498
:10299000605060606068A96820F0F00008436060E3
:1029A0002878C00728D06868012810D0216802283C
:1029B00010D0890700292EDA616821F00301014354
:1029C0006160FFF795FB804641F288390DE0216890
:1029D0008903EFE78901EDE7FFF78AFBA0EB080128
:1029E000494502D90320BDE8F0876068696800F0B6
:1029F0000C00B0EB810FEFD1306800F00700B84257
:102A00000BD9306820F0070038433060306800F0A0
:102A10000700B84201D00120E5E72878400705D536
:102A20006068E96820F4E060084360602878000787
:102A300006D56068296920F4605040EAC1006060F2
:102A400000F038F86168084AC1F30311515CC840CE
:102A50000649086006480068FFF724FE0020C2E728
:102A60000020024000100240EE80000820000020FC
:102A7000180000200448054900684968044AC1F369
:102A80000221515CC8407047200000200010024025
:102A9000FE8000080448054900684968044AC1F3FB
:102AA000C221515CC8407047200000200010024045
:102AB000FE8000080E4A51680E4801F00C03042BFA
:102AC00011D0082B0FD10C48C1F38343C903C05C5C
:102AD0000AD55168084AC1F34041921E515C054A2B
:102AE0005043B0FBF1F07047044948437047000081
:102AF0000010024000127A00CC80000800093D005E
:102B00002DE9F84F040070D02078C04DC00749D09F
:102B10006868C0F38100012807D06868C0F38100AD
:102B2000022809D16868C00306D52868800339D512
:102B300060680028E7D035E06068B0F5803F0BD0D2
:102B400010B1B0F5A02F11D0286820F48030286093
:102B5000286820F4802002E0286840F48030286053
:102B6000606890B1FFF7C4FA06460AE0286840F4AE
:102B700080202860F0E700BFFFF7BAFA801B6428C6
:102B800073D828688003F7D50CE0FFF7B1FA064642
:102B900005E000BFFFF7ACFA801B6428F0D8286876
:102BA0008003F7D420789A4E80074FF001094FF048
:102BB000000839D5686810F00C0F07D06868C0F3BA
:102BC0008100022809D16868C00306D428688007FC
:102BD00014D52069012808D110E02069B0B1C6F8E9
:102BE0000090FFF785FA074605E00AE1FFF780FA53
:102BF000C01B0228C4D828688007F7D528686169F7
:102C000020F0F80040EAC10028600DE0C6F800801E
:102C1000FFF76EFA074604E0FFF76AFAC01B0228C6
:102C200023D828688007F7D4207800072CD5794866
:102C3000A169D9B1C0F80090FFF75AFA074604E03D
:102C4000FFF756FAC01B02280FD8686A8007F7D52D
:102C500071484FF4FA510068B0FBF1F0009000BFEA
:102C60000098411E0091FAD20EE080E0C0F800808A
:102C7000FFF73EFA074604E0FFF73AFAC01B0228C6
:102C800075D8686A8007F7D42078400760D5E8696E
:102C90000027C00008D4E86940F08050E861E86986
:102CA000012700F0805000905C480168C90513D4EA
:102CB0000168834641F480710160FFF719FA82468A
:102CC00006E000BFFFF714FAA0EB0A0064284ED814
:102CD000DBF80000C005F5D5E06801280AD008B18E
:102CE000052813D0286A20F001002862286A20F005
:102CF000040002E0286A40F001002862E06841F226
:102D0000883B98B1FFF7F4F982460BE0286A40F05F
:102D100004002862EEE700BFFFF7EAF9A0EB0A0122
:102D200059455AD8286A8007F6D50CE0FFF7E0F934
:102D3000824605E0FFF7DCF9A0EB0A0159454CD8C3
:102D4000286A8007F6D41FB1E86920F08050E86156
:102D5000E06988B36968C1F38101022944D002287F
:102D6000C6F8608004D0FFF7C3F9044638E034E0C9
:102D7000FFF7BEF9074604E0FFF7BAF9C01B0228C7
:102D80002BD828688001F7D4206AB0F5803F05D1A0
:102D90006868A16820F4003008436860D4E908013D
:102DA0000843696821F4741108436860C6F86090AC
:102DB000FFF79EF9044606E025E000BFFFF798F90B
:102DC000001B022809D828688001F7D51BE000BF46
:102DD000FFF78EF9001B022802D90320BDE8F88F07
:102DE00028688001F4D40EE00128F7D06868226AD0
:102DF00000F48031914204D1616A00F4701088427D
:102E000001D00120EAE70020E8E7000000100240BE
:102E10000000424280044242200000200070004036
:102E2000024850F8210080B270470000006C00405A
:102E3000024800EB810091B201607047006C0040D5
:102E400070B5040003D0607C002610B105E00120BD
:102E500070BD2674204600F03DF8022060742046C4
:102E600000F00AF9042550BB204601F089FC30BB74
:102E70002068416821F007014160A06820B1144832
:102E8000016821F0010101601148001F0168A2687A
:102E900021F46071114301606068411C04D101207C
:102EA000FFF78AFC58B1401E2268C0F303419160CD
:102EB000216880B2C860204601F07CFC08B16574CE
:102EC000C5E7E67301206073A0736074002070BDD5
:102ED000306C004008B50068084988420DD1FFF702
:102EE00065FC0748C16941F00061C161C0690549DD
:102EF00000F0006000900120086008BD002800403C
:102F0000001002403C0442422DE9F0410D4604000D
:102F10003BD0C5B3207C01283AD04FF0010884F89B
:102F2000108002206074E87872B301F020FCE07336
:102F3000687801F01CFC6073A87801F018FCA0739D
:102F4000C2B2617BE07B01F067FC207328702046F1
:102F500001F052FC4FF46161B0FBF1F1002518293A
:102F60002DD91822B1FBF2F1A1EB011101EB4101C6
:102F7000C1EB011100EBC1163146204601F08BFC7C
:102F80000427C8B90BE000E004E00120BDE8F081AF
:102F90000220FBE7E07368786073A878CFE72046EB
:102FA00001F023FC411C0AD0B04208D2064901447A
:102FB000204601F05CFC10B167742574E5E784F8E5
:102FC000118025740020E1E7805101002DE9F041D6
:102FD0000D46040024D01DB3207C012823D04FF0DF
:102FE000010884F81080022060742878EAB101F0AA
:102FF000BEFB4FF4616100FB01F6687801F0B7FB9E
:10300000C0EB001006EB8006A87801F0B0FB351885
:103010002946204601F03FFC0026042710BB0FE0A4
:103020000120BDE8F0810220FBE74FF461614843D5
:103030006978C1EB011100EB8100A9784518E7E739
:103040002068416821F005014160204601F0CDFB78
:10305000411C0AD0A84208D206490144204601F08A
:1030600006FC10B167742674DAE784F811802674C0
:103070000020D6E78051010070B504000AD0206816
:10308000416821F008014160FFF732F805464FF42E
:103090007A7608E0012070BDFFF72AF8401BB042A5
:1030A00001D9032070BD206840680007F4D50020D6
:1030B00070BD10B5401EB0F1807F01D3012010BD5E
:1030C0004FF0E02460610F21601701F0FEFD002049
:1030D000A06107202061002010BD7047704710B527
:1030E00090F83C20012A22D0012280F83C20CA68B6
:1030F0008C6822F4407222434C6822F4806222439E
:103100000C6822F4006222430C6922F480522243AC
:103110004C6922F400522243C969002322F4804200
:103120000A4301684A6480F83C30002010BD022048
:1031300010BD000070B590F83C20012A26D0012473
:1031400080F83C40022280F83D2003685A689D6860
:1031500022F070060A6832435A600D4B02689A42A8
:1031600008D0B2F1804F05D00A4B9A4202D00A4BE8
:103170009A4204D1496825F080031943916080F890
:103180003D40002180F83C10084670BD022070BD13
:10319000002C0140000400400008004010B504006D
:1031A00003D094F83D0010B107E0012010BD0020CD
:1031B00084F83C00204600F01FF8022084F83D000F
:1031C000211D206801F022FC012084F8460084F8CB
:1031D0003E0084F83F0084F8400084F8410084F801
:1031E000420084F8430084F8440084F8450084F8E1
:1031F0003D00002010BD000008B51A4A01681A48B9
:10320000914208D1816941F400618161806900F4D3
:103210000060009008BDB1F1804F14D0134A914274
:10322000F8D1C16941F00201C161C069002200F01A
:103230000200009005211D20FFF786FA1D20BDE841
:103240000840FFF773BAC16941F00101C161C0696B
:10325000002200F00100009005211C20FFF774FA05
:103260001C20ECE7002C014000100240000400404C
:1032700090F83D10012901D001207047022180F80B
:103280003D100168CA6842F00102CA6000680B493B
:10329000884208D0B0F1804F05D00949884202D059
:1032A0000849884204D1816801F00701062903D04A
:1032B000016841F00101016000207047002C0140CD
:1032C000000400400008004070B5044690F83C003F
:1032D0000025012817D0012684F83C60022084F8DC
:1032E0003D002068826822F0770222F47F428260EB
:1032F0000868502838D00DDC20284FD005DC90B36A
:10330000102811D14AE0022070BD302846D0402854
:103310000AD13BE060282FD070280DD0B0F5805F37
:1033200003D0B0F5005F12D0012584F83D60002085
:1033300084F83C00284670BDCB68D1E901212068A3
:1033400001F0ADFB2068816841F0770109E0CB68AE
:10335000D1E90121206801F0A2FB2068816841F4D5
:1033600080418160E1E719E0CA684968206801F09E
:103370004BFC5021206806E0CA684968206801F0CB
:1033800054FC6021206801F094FBCEE7CA684968CC
:10339000206801F039FC40212068F4E722680146EA
:1033A0001046F0E770472DE9F04104460068C66812
:1033B00005694FF00007A90713D5B10711D5F91E0C
:1033C000016101202077206880698007204602D0B3
:1033D000FFF7E8FF04E000F0A5F8204600F037F919
:1033E0002777680716D5700714D521686FF0040099
:1033F0000861022020772068806910F4407F204611
:1034000002D0FFF7CFFF04E000F08CF8204600F078
:103410001EF92777280715D5300713D521686FF0D7
:1034200008000861042020772068C06980072046D2
:1034300002D0FFF7B7FF04E000F074F8204600F078
:1034400006F92777E80616D5F00614D521686FF03F
:1034500010000861082020772068C06910F4407FC0
:10346000204602D0FFF79EFF04E000F05BF8204604
:1034700000F0EDF82777E80708D0F00706D02168BC
:103480006FF001000861204600F030F9280608D5E9
:10349000300606D521686FF0800008612046FFF7EE
:1034A0001CFE680608D5700606D521686FF040003E
:1034B0000861204600F06CF9A8060AD5B00608D5C8
:1034C00021686FF0200008612046BDE8F041FFF759
:1034D00005BEBDE8F081000000B585B00021009177
:1034E00001910291039100680B49884212D10B4867
:1034F000816941F0040181618069694600F004003E
:1035000004904FF4807000900220019003900448D2
:10351000FEF7F4FC05B000BD002C01400010024095
:1035200000080140704770B5044690F83C00002642
:103530000D4601280FD0012084F83C006AB1042A0E
:103540001DD0082A2FD00C2A3FD00126002084F855
:103550003C00304670BD022070BD206801F0B2FA18
:103560002068816941F0080181612068816921F04A
:1035700004018161206881692A69114311E0206892
:1035800001F0C8FA2068816941F400618161206816
:10359000816921F480618161206881692A6941EA39
:1035A00002218161D2E7206801F0E0FA2068C16958
:1035B00041F00801C1612068C16921F00401C161C5
:1035C0002068C1692A69114311E0206801F0FAFA04
:1035D0002068C16941F40061C1612068C16921F4BA
:1035E0008061C1612068C1692A6941EA0221C16123
:1035F000ACE710B5040003D094F83D0010B107E02B
:10360000012010BD002084F83C00204600F01EF888
:10361000022084F83D00211D206801F0F7F9012007
:1036200084F8460084F83E0084F83F0084F84000A7
:1036300084F8410084F8420084F8430084F8440090
:1036400084F8450084F83D00002010BD70477047A5
:1036500010B50446022249B104290ED0082913D01E
:1036600094F84100012816D0012010BD94F83E00C6
:103670000128F9D184F83E200FE094F83F0001289A
:10368000F2D184F83F2008E094F840000128EBD103
:1036900084F8402001E084F841200122206801F0F4
:1036A000F1F90F492068884203D1426C42F400428C
:1036B00042642068884208D0B0F1804F05D00949A3
:1036C000884202D00849884204D1816801F007018C
:1036D000062903D0016841F001010160002010BDFE
:1036E000002C0140000400400008004070B5006854
:1036F000B0F1804F45D102212248FEF7EFFC224C69
:10370000A070224D40212846FEF7E8FCA07210214F
:103710002846FEF7E3FCA07400210A465FF001038F
:1037200004EBC100457825B1012D06D0022D17D13B
:103730000AE08578A5B9437012E085780DB1427032
:103740000EE0022545700BE08578012D10D08588AC
:103750006D1C85808588C82D02D9837104F83120BD
:10376000491CC9B20329DBD3BDE8704003F074BA29
:1037700042708588C82D01D204F831308280827170
:10378000EEE770BD000C0140300B00200008014046
:103790007047FEE701684A69D24352050FD46FF4BF
:1037A00080624A61002140F8301F202242738173F9
:1037B000026942F004020261017301207047002097
:1037C000704700002DE9F84F0446006889460B9DBC
:1037D00001689846174641F48061016020680168DD
:1037E00041F48071016000954FF0011B00225946A1
:1037F00020460A9B00F0E4F84FF4007A40B12068BC
:103800000068C00501D5C4F840A00320BDE8F88FCA
:10381000216809F0FE0008612B46284920460A9AD3
:1038200000F016F9F0BB20684169806900902A46D3
:1038300020460A9900F0A2F940B1206C04283AD140
:103840002068016841F40071016034E0FEB2B8F113
:10385000010F09D02168380A08612A4620460A99D2
:1038600000F08CF90028E8D1206806612A4620463D
:103870000A9900F083F90028DFD12068016841F43B
:103880008071016000950022594620460A9B00F095
:1038900097F80028B3D1216809F0FF0040F001003B
:1038A000086100E007E02B46044920460A9A00F030
:1038B000CFF80028AAD00120A8E7000002000100EC
:1038C0002DE9F843044600680D46DDE908970168D4
:1038D0009846164641F4807101604B4600224FF035
:1038E00001112046009700F06BF848B1206800688D
:1038F000C00502D54FF4007020640320BDE8F883B2
:10390000216805F0FE0008613B464A4615492046FD
:1039100000F09EF888B920684169806900903A46B5
:103920004946204600F02AF948B1206C042804D109
:103930002068016841F4007101600120DEE7F5B202
:10394000B8F1010F09D02168300A08613A464946AA
:10395000204600F013F90028E7D120680561002017
:10396000CCE700000200010070B516460D46044683
:103970001EE02046FFF70EFF08B1012070BD681C55
:1039800016D0FEF7B5FB801BA84200D885B9206889
:103990004069C04340070BD5002044F8300F202178
:1039A0006173A073216941F0200121612073E4E774
:1039B00020684069C0434007DBD4002070BD000090
:1039C0002DE9F047984617460D460446C1F30746D1
:1039D000DDF820902AE000BFB8F1FF3F26D0FEF7C7
:1039E00087FBA0EB0901414502D8B8F1000F1DD1BA
:1039F0002068012E16D0806925EA00000004000C22
:103A000012D00020B84211D1002044F8300F2021FC
:103A10006173A073216941F02001216120730120AD
:103A2000BDE8F0874069E7E70120EBE72068012E59
:103A30000AD0806925EA00000004000C06D00020AE
:103A4000B842C9D00020EBE74069F3E70120F7E76F
:103A50002DE9F047984616460D4604464FF00009FA
:103A60004FF0200AC1F3074723E020684069C043B4
:103A7000400515D42068016841F400710160216897
:103A80006FF480604861C4F8309084F83DA084F8F9
:103A90003E90216C41F00401216484F83C9021E0C7
:103AA000701C06D0FEF724FBA0EB0800B04203D840
:103AB00016B1012F1FD021E02068012F15D0806999
:103AC00025EA00000004000C18D000BF44F8309F25
:103AD00084F80DA084F80E90216941F02001216145
:103AE00084F80C900120BDE8F087406925EA0000C9
:103AF0000004000CEAD12068406901E02068806978
:103B000025EA00000004000CAFD1ECE72DE9F041FC
:103B1000002590460E460446202728E04069C04311
:103B2000C0060CD454F8301B6FF01000486144F804
:103B300010596777A577206A2062257714E0FEF791
:103B4000D7FAA0EB0800B04200D886B920684069D7
:103B5000C04340060BD544F8305F6773A5732069F6
:103B600040F02000206125730120BDE8F08120682D
:103B70004169C9434906D1D40020F6E770B516461D
:103B80000D4604461EE02046FFF704FE08B1012062
:103B900070BD681C16D0FEF7ABFA801BA84200D897
:103BA00085B920684069C04300060BD5002044F861
:103BB000300F20216173A073216941F02001216140
:103BC0002073E4E720684069C0430006DBD400208E
:103BD00070BD00000249087800220A70704700009A
:103BE0009E0000200A4803780A4A00211BB10123E5
:103BF000137001707047037A1BB1022313700172B6
:103C00007047037C002BFBD00323137001747047B3
:103C1000300B00209E000020FFF7E4FF052002F09B
:103C2000F1FEF9E70648C178052908D0817C022910
:103C300005D1C07C012802D1022001F011BB7047E0
:103C400030000020FFF7EEFF1E2002F0DBFEF9E758
:103C50002DE9F04186B0002431480094019402948B
:103C60000394816941F010018161816901F01001C3
:103C70000491816941F020018161816901F0200195
:103C80000491816941F004018161816901F00401BD
:103C90000491816941F0080181618069214F00F040
:103CA00008004FF400550490002229463846FEF7DC
:103CB0001AFADFF87480002248F2C0014046FEF78D
:103CC00012FA0095022601250396CDE901546946B2
:103CD0003846FEF713F950208DE831006946134845
:103CE000FEF70CF9009669464046CDE90145FEF71E
:103CF00005F9E803CDE90005CDE9024669464046ED
:103D0000FEF7FCF8C02000901120CDE9010403204B
:103D1000039069464046FEF7F1F806B0BDE8F08131
:103D20000010024000100140000C0140000801405A
:103D30000D4810B50B4901600C49416000214FF45A
:103D400080428160C0E9031241618161C161016209
:103D5000FEF7D4F9002803D0BDE81040FEF7B9B84B
:103D600010BD00000058004028010020801A060005
:103D70001CB500241C4801941A4900940160611E7E
:103D800041604FF480718160FFF75AF808B1FEF787
:103D9000A0F801211448FFF743F8A0F52541A53903
:103DA0001FD08DF804408DF805408DF806400122A3
:103DB00001A90D48FFF70AF908B1FEF78AF80120BA
:103DC0008DF800008DF801008DF8020002468DF894
:103DD000034069460448FFF797F8002801D0FEF732
:103DE00078F81CBD002800407C01002010B596B07A
:103DF00000240F9410941194129413941C2108A879
:103E00001494FCF7C7FA20216846FCF7C3FA284847
:103E1000264901604721C0E9011440F2E731C0E9B9
:103E2000031444618461FFF7B9F908B1FEF751F852
:103E30004FF480500F900FA91D48FFF745FA08B1C5
:103E4000FEF747F81A48FFF7D4FB08B1FEF741F830
:103E5000139413A916481494FFF76CF908B1FEF7F0
:103E600038F86020CDE908040A940B940C940D9462
:103E7000002208A90E480E94FFF755FB08B1FEF783
:103E800028F800944FF40050CDE9044002940194C6
:103E90000394694606480794FFF721F908B1FEF735
:103EA00018F80348FFF718FB16B010BD002C0140AE
:103EB0009001002010B586B00024174800940194AA
:103EC0000294039404944FF080410594016040F201
:103ED000CF21C0E9011440F2E731C0E90314846145
:103EE000FFF75CF908B1FDF7F4FF4FF48050009044
:103EF00069460948FFF7E8F908B1FDF7EAFF0494BD
:103F000004A905480594FFF715F9002801D0FDF72D
:103F1000E0FF06B010BD0000D801002010B586B04B
:103F200000241748009401940294039404941349C4
:103F3000059401604721C0E9011440F2E731C0E96E
:103F400003148461FFF72AF908B1FDF7C2FF4FF4AB
:103F50008050009069460A48FFF7B6F908B1FDF7AE
:103F6000B8FF049404A906480594FFF7E3F8002875
:103F700001D0FDF7AEFF06B010BD00000004004008
:103F800020020020FEE7002801DAC01D02E0072819
:103F900001DBC01F00B2C0B27047000010B50121A4
:103FA0000848FEF73DFF4AF2A554A04208D000F0B1
:103FB00035F82246BDE8104001210248FEF738BF1F
:103FC00010BD00007C010020124800B500688DB0D3
:103FD0001049091F096840EA014000F5E1400B90D3
:103FE0000BA8FCF73FFA01462C226846FCF7A0F923
:103FF0000948059901F26C7101800499491C4180BE
:10400000039981800299C1800199018100994181C0
:104010000DB000BD1C28004024000020184810B539
:1040200001888CB0A1F26C7105914188491E049100
:1040300081880391C1880291018901914089009092
:104040006846FCF734FAA0F5E1440E48FFF714F88F
:104050000D4801688906FCD5016841F01001016036
:10406000094A210C14321160121DA1B211600168BD
:1040700021F01001016001688906FCD50CB010BD6B
:10408000240000207C01002004280040FEE70000FE
:1040900010B50021074C0A46002004EBC1131A5446
:1040A000401CC0B28028FAD3491CC9B20829F3D3F6
:1040B00010BD000068020020F0B50B4424E0044667
:1040C00085181DE07F2C19D8002917DB3F2915DC46
:1040D000CE1701EB56764FEAE60C0D4F26F0070699
:1040E00007EBCC172744A1EB060E97F800C001267A
:1040F00006FA0EF62CEA060C87F800C0641C24B2FF
:10410000A542DFDC491C09B28B42D8DCF0BD0000BF
:10411000680200202DE9FF4F804687B0C2F1010000
:10412000144603900D46081901B200264746404642
:1041300000F090F8281B01B2384600F08BF808EB2D
:10414000040000B2294600F085F8A8EB040000B294
:10415000294600F07FF80A98002875D0674206E0EB
:10416000E81901B2404600F075F87F1C3FB2A74243
:10417000F6DB69E0761C039836B2002802DA00EB21
:10418000460004E0641E24B2311B00EB4100401CD9
:1041900000B20390281901B208EB060000B2814674
:1041A0000291069000F056F8A81901B208EB04003D
:1041B00000B28346059100F04DF8281B01B2A8EB30
:1041C000060000B20F460190009000F043F8A81BD3
:1041D00001B2A8EB040000B28246049100F03AF864
:1041E0003946484600F036F85846049900F032F84F
:1041F0000299009800F02EF85046059900F02AF830
:104200000A9808B3604207B20BE0E81901B2894688
:10421000069800F01FF84946019800F01BF87F1C33
:104220003FB2A742F1DB704207B20BE0E81901B2DE
:104230008946504600F00EF84946584600F00AF804
:104240007F1C3FB2B742F1DBA64293DB0BB0BDE867
:10425000F08F000010B57F2813D8002911DB3F290B
:104260000FDCCA1701EB5272D410064B22F0070282
:1042700003EBC41318448A1A0378012191400B43BD
:10428000037010BD6802002010B500204FF47A7250
:104290000021491C9142FCD3401C9042F8D30120DC
:1042A00000F024FABDE81040012000F02BBA70B5F0
:1042B00000240646802525FA04F0304000D0012075
:1042C00000F020FA012000F011FA002000F00EFAB0
:1042D000641CE4B2082CEED3012000F007FABDE81C
:1042E0007040002000F002BA10B5012000F00AFA78
:1042F000012000F0FBF9002000F004FABDE81040B6
:10430000002000F0F3B910B5002000F0FBF9012007
:1043100000F0ECF9BDE81040012000F0F3B910B551
:10432000FFF7B2FFAE2000F0F9F9D52000F0F6F962
:10433000802000F0F3F9A82000F0F0F93F2000F011
:10434000EDF9D32000F0EAF9002000F0E7F9402071
:1043500000F0E4F9A12000F0E1F9C82000F0DEF956
:10436000DA2000F0DBF9122000F0D8F9812000F00B
:10437000D5F9CF2000F0D2F9D92000F0CFF9F12003
:1043800000F0CCF9DB2000F0C9F9302000F0C6F9CC
:10439000A42000F0C3F9A62000F0C0F98D2000F0A1
:1043A000BDF9142000F0BAF9AF2000F0B7F9FFF71B
:1043B0006FFEBDE8104000F085B90246012000E024
:1043C0005043491EFCD270470FB470B5C0B01446BC
:1043D0000D46064648AA68464799FBF797FF2346CD
:1043E0006A462946304600F0FFF840B070BC5DF8E0
:1043F00014FB0000F0B50B4423E0044685181CE0D4
:104400007F2C18D8002916DB3F2914DCCE1701EBCE
:10441000567C4FEAEC070C4E2CF0070C06EBC71647
:104420002644A1EB0C0E37784FF0010C0CFA0EFC71
:1044300087EA0C073770641C24B2A542E0DC491CF3
:1044400009B28B42D9DCF0BD6802002010B50C46E1
:1044500040F0B00000F062F9102040EA141000F0C3
:104460005DF904F00F00BDE8104000F057B90000FE
:1044700008B5082B0ED0062B15D00C2B1ED1104BD7
:1044800002EBC20203EB8202A2F5906218230092B3
:104490000C2211E00B4B03EB0212A2F50072102369
:1044A0000092082208E0084B02EB420203EB4202B2
:1044B000C03A00920823062200F008F808BD000068
:1044C0003089000806810008F68600082DE9F04FC3
:1044D0001F4616460D4682460024FFF7EDFD7F1E5F
:1044E000F81707EB50700121DFF898B001EBE007F7
:1044F00043E000203DE000BF0AEB00037F2B36D8ED
:10450000E91705EB5171CA1021F00701691A002D56
:1045100003DA521E083112B209B202EB0409B9F1F2
:10452000070F0ED8099A04FB06F802440BEBC91ECC
:1045300018F802201EF803C08A404CEA020C0EF85C
:1045400003C009F10102072A11D80BEBC91202EBD3
:104550000308099A04FB06FC024498F880301CF812
:104560000220C1F10801CA40134388F88030401C82
:10457000C0B2B042C0D3641CE4B2A742B9DCBDE80B
:10458000F08F0000680200202DE9F0471E46DDF89C
:10459000208014008A468146434604D42B22FFF72C
:1045A00067FF254603E02D22FFF762FF65420024E6
:1045B0000A2714E0311B0A20491EFFF7FEFEB5FB57
:1045C000F0F0B0FBF7F107FB1102641C04FB08904C
:1045D00000B2434651463032FFF74AFFE4B2B442DC
:1045E000E8D3BDE8F08700002DE9FF4F002583B038
:1045F0009B4690462C46AA46DFF8C09056E010062F
:104600008DF8042005F101050DD40398ADB22044C6
:104610008DF805A000B25B460499FFF729FF04EB73
:104620000B0084B242E0A8B218F80010002941D073
:10463000401C8DF8051085B28DF806A0002606E016
:10464000384601A9FBF7CEFE68B1761CB6B2C6EBC0
:10465000C60000EB800101EB0900074618A1FBF73B
:10466000C1FE0028ECD1BBF1080F03D0BBF1060F4F
:104670001CD111E0C6EBC60000EB800101EB090084
:10468000C01C009003981023204400B21A460499DD
:10469000FFF71CFF103408E003980623204400B203
:1046A0003F220499FFF7E4FEA41DA4B218F80520E8
:1046B000002AA4D107B0BDE8F08F00008C96000856
:1046C0000000000070B5084D002400212046FFF7CF
:1046D000BDFE05EBC410802100F031F8641CE4B28B
:1046E000082CF2D370BD000068020020044B08B112
:1046F000012200E0002240211846FDF7F4BC000032
:10470000000C0140044B08B1012200E0002280218E
:104710001846FDF7E8BC0000000C014010B5044647
:10472000FFF7E2FD7820FFF7C2FD0020FFF7BFFD95
:104730002046FFF7BCFDBDE81040FFF7E4BD70B5B3
:104740000D460646FFF7D0FD7820FFF7B0FD40206C
:10475000FFF7ADFD002404E0305DFFF7A8FD641C09
:10476000E4B2AC42F8D3BDE87040FFF7CCBD01091C
:1047700001EB810100F00F0000EB4100C0B2704777
:1047800070B50446FDF7B4FC05464FF47A7606E0B2
:10479000FDF7AEFC401BB04201D9032070BD20687C
:1047A00040688006F4D52068416841F010014160FE
:1047B000002070BD70B504460068416821F010010A
:1047C0004160FDF795FC05464FF47A7607E000BF9F
:1047D000FDF78EFC401BB04201D9032070BD20685C
:1047E00040688006F4D5002070BD0168086A496AF7
:1047F00089B241EA00407047006881698AB2C169A4
:104800008BB2816989B28A4203D0C06961F31F40CB
:10481000704743EA02407047F0B56424C1EBC1031E
:104820000927A500072603EB01130329B3FBF7F1C2
:1048300000F5FA60114401440AD2401EB0FBF4F2C4
:1048400001EB9001B0FBF5F0891A0844001D08E067
:10485000B0FBF4F201EB9001B0FBF5F0891A0844CB
:10486000801CB0FBF6F106FB1100C0B2F0BD70B5C4
:104870000D4606460024FFF783FF48B93168280C2F
:1048800008623168A8B248623046FFF793FF00B172
:104890000124204670BD70B50D4606460024FFF782
:1048A0006FFF48B93168280C88613168A8B2C861C7
:1048B0003046FFF77FFF00B10124204670BD0000A5
:1048C0001FB56424012303AA8DE81C000A46014693
:1048D0000348FDF7D7FC9DF80C0004B010BD0000A4
:1048E0002801002010B5104C607850B1FDF700FC95
:1048F000616E401A052804D3FDF7FAFB606601F0EB
:10490000B9F9A07800280ED0FDF7F2FBA16E401A8D
:104910000A2808D3FDF7ECFBA06600F07DFDBDE89A
:10492000104000F099BE10BD30000020FFF7DAFF04
:104930000A2002F067F8F9E717B583B06424012371
:1049400005AA8DE81C000A4601460248FDF7C8FD8D
:1049500006B010BD2801002010B5FDF789FE02F059
:1049600077FA012803D0BDE8104002F02FBA10BD3D
:1049700070B594B028216846FBF70CFD14210AA8F5
:10498000FBF708FD002501240F95119505201295D0
:104990000090CDE9025410954FF48030019002262A
:1049A0000494CDE907604FF4E01009906846FEF7E3
:1049B000A7F808B172B6FEE70F20CDE90A064FF45A
:1049C0008060CDE90C5002210AA80E95FDF7BCFFCE
:1049D00008B172B6FEE74FF48070CDE90F400FA822
:1049E000FDF73CFF002801D072B6FEE714B070BDA1
:1049F000704700000148FEF7D6BC0000D801002037
:104A00000148FEF7D0BC000020020020F0B502688B
:104A1000194B1A4C1A4D4FF08047984205D0B842B6
:104A200003D0A04201D0A84203D122F070064A6808
:104A30003243984205D0B84203D0A04201D0A842E8
:104A400003D122F44074CA6822434C6922F08002E8
:104A5000224302608A68C2620A688262984201D177
:104A600009690163012141610169C90703D0016935
:104A700021F001010161F0BD002C01400004004063
:104A80000008004010B501F01F030121046A99409D
:104A90008C430462016A9A401143016210BD10B553
:104AA000846842EA032224F47F440A43224382605A
:104AB00010BD826822F070020A4342F00701816053
:104AC0007047000030B5036A026A22F001020262F8
:104AD0004268846924F073050C682C4323F00205B6
:104AE0008B682B430A4DA8420BD123F00805CB68F5
:104AF00022F440722B434D6923F0040315438A6965
:104B00002A434260846149684163036230BD00000A
:104B1000002C014030B5026A036A23F010030362DF
:104B2000436884690D6824F4E64444EA05248D68EA
:104B300022F0200242EA05120B4DA8420ED1CD68A8
:104B400022F0800242EA05124D6923F4406343EAF1
:104B500085038D6922F0400243EA85034360846146
:104B600049688163026230BD002C014030B5036AA0
:104B7000026A22F4807202624268C46923F40073FC
:104B800024F073050C682C438D6843EA05230C4D13
:104B9000A8420ED1CD6823F4006343EA05234D6992
:104BA00022F4405242EA05128D6923F4806342EAFE
:104BB00005124260C4614968C163036230BD0000F0
:104BC000002C014030B5046A026A22F4805202626D
:104BD0004268C3690D6823F4E64343EA05238D6800
:104BE00024F4005444EA0534064DA84204D14D692A
:104BF00022F4804242EA85124260C361496801643E
:104C0000046230BD002C014010B5036A046A24F030
:104C100001040462846924F0F00444EA021423F0DD
:104C20000A020A438461026210BD10B5036A046A75
:104C300024F010040462846923F0A00324F4704477
:104C400044EA023243EA01118261016210BD0000B0
:104C50000F48C0780A281AD2DFE800F00507090BD0
:104C60000D0F1113151700F0BFBA00F065BE01F06B
:104C70007FBB01F0DDBB01F0ABBF00F03DBB01F03D
:104C8000BDB800F087BF01F005B900F0ADBD7047B9
:104C900030000020FFF7DCFF0A2001F0B3FEF9E747
:104CA000FEE7490050EAC12018BF04204A0D18BF92
:104CB00040F0010040F2FF72B2EB515F08BF40F0DC
:104CC0000200012808BF052070470907090E0028C7
:104CD00004DB00F1E02080F80014704700F00F00C2
:104CE00000F1E02080F8141D70472DE9F0414F1EBF
:104CF00000EBC7010446D1E9000115461E4637F016
:104D000006020DD02A46334602F06CFC7F1E04EBEF
:104D1000C703D3E9002302F0CFF937F00602F1D13F
:104D2000022F25D0042F13D0062F18BFBDE8F08125
:104D30002A46334602F056FCD4E90A2302F0BCF9B5
:104D40002A46334602F04EFCD4E9082302F0B4F9B7
:104D50002A46334602F046FCD4E9062302F0ACF9B9
:104D60002A46334602F03EFCD4E9042302F0A4F9BB
:104D70002A46334602F036FCD4E9022302F09CF9BD
:104D80002A46334602F02EFCD4E90023BDE8F04168
:104D900002F092B9012203F052B902F08DB900007D
:104DA000024A0020110703F04AB9000001FDFFFF8D
:104DB00030380A2801D201207047002070470000D7
:104DC0002DE9F84F04460D4621F00040009173494B
:104DD000814211DC7249884201DC06D12CB12046A7
:104DE0002946BDE8F84FFFF7D5BF6E48002DCCBF70
:104DF0006D496E49BDE8F88F6D49814211DD6D49FD
:104E00008142D8BF4FF0FF366DDD20462946FFF7BF
:104E100048FF042808BFFFF7C3FF20462946BDE826
:104E2000F88F6549654F25F00045814233DD6449BF
:104E3000814219DD002632464FF080432046294644
:104E400002F03AF980468A4601222046294603F0BC
:104E5000F6F800223B4602F0CFFC4246534602F0F1
:104E6000E7F904460D463EE001260022BA463B46DD
:104E70002046294602F020F980460F46002253467C
:104E80002046294602F0B8FC42463B4602F0D0F9E3
:104E900004460D4627E04B4981421BDDDFF828A17F
:104EA0000226002253462046294602F09BFB0022A0
:104EB0003B4602F001F980460F4600225346204649
:104EC000294602F099FC42463B4602F0B1F90446FD
:104ED0000D4608E0032622462B4600203B4902F0FF
:104EE000A7F904460D4622462B461046194602F005
:104EF00079FB8B46824602460B4602F073FB07465F
:104F00000246334888460B4606217844FFF7EDFEFB
:104F100052465B4602F066FB82462E488B463A4676
:104F2000434605217844FFF7E0FE3A46434602F047
:104F300059FB02460B46002E504659460CDA02F049
:104F4000BBF822462B4602F04DFB01B022462B4611
:104F5000BDE8F04F02F044BC02F0AEF822462B460A
:104F600002F040FB1C4A7A4402EBC603D3E900235B
:104F700002F042FC22462B4602F03EFC174A7A44DD
:104F800002EBC603D3E9002302F02AFC009A002AB0
:104F9000B8BF81F00041BDE8F88F00000000104468
:104FA0000000F07F182D4454FB21F93FFB21F9BF8D
:104FB0000000DC3F0000203E0000F33F0000F03F17
:104FC0000000E63F008003400000F83F0000F0BF13
:104FD000A252000060520000FE510000C6510000C5
:104FE0002DE9F04D9446CCF1000423F000464CEA44
:104FF0000404594F46EAD4749A46884621F0004288
:10500000BC4206D8454240EA050442EAD474BC4298
:1050100004D9BDE8F04D6246FFF7BFBEAAF1405586
:10502000A5F17F6555EA0C040BD0022404EAAA74AA
:105030004A4DDFF82CE144EAD87452EA000B04D060
:105040000CE0BDE8F04DFFF7BBBE002C14BF012CF7
:10505000BDE8F08D022C30D0032C32D056EA0C0B78
:105060000AD0BE4220D1BA4209D126F0804622F0B1
:1050700080423346114617E000291ADB25E0DFF8AD
:10508000E4B0FB44002C04BFDBE90001BDE8F08D77
:10509000012C02BFDBE9000181F00041BDE8F08D89
:1050A000022C0AD0032C0CD0BA4212D1B8F1000F56
:1050B0000BDA2A482C49BDE8F08D28462B49BDE87B
:1050C000F08D28467146BDE8F08D24482849BDE89A
:1050D000F08D921B12153C2AC4BF204F244E10DCC9
:1050E000BAF1000FBEBF12F13C0F00273E4608DBAD
:1050F000624602F09DF821F00041FFF761FE07468D
:105100000E4694B1012C08BF86F000460DD0194A16
:10511000194B022C3846314615D002F06DFB2A4659
:10512000BDE8F04D114B02F067BB00221346384634
:10513000314602F0D5F904BF0220FBF777FA384672
:105140003146BDE8F08D02F057FB2A46BDE8F04D30
:10515000064B02F045BB00000000F07F182D4454C0
:10516000FB2109C05A510000FB21F9BFFB21094076
:10517000FB21F93F075C143326A6A13C06480168D1
:1051800041F080710160054800214160016841F0F3
:105190000101016070470000FCED00E0001000E03C
:1051A000012802D102484171827100F021BC000047
:1051B000300000201CB507490120CDE900010202A2
:1051C000002305A1074801F017FEBDE81C4001F0CF
:1051D00095BC00001000002073746172745F7461EC
:1051E000736B0000C567000810B5FEF7F3FC1B4C9D
:1051F000012805D0012102280AD003281CD00DE087
:105200002078401CC0B22070022807D3002002E0A2
:10521000207810B1401E207000E02170FEF738FFAA
:1052200001F08EFA20784FF010034FF020024FF07B
:10523000300158B160200AE0207810B10220E070FF
:1052400000E0E170BDE81040FEF722BF0020FFF74C
:10525000D1F8BDE81040FFF735BA0000300000205B
:1052600010B511494FF47A7301280DD0002268B1AE
:1052700002280AD10D48047854B143880A3B1B0424
:105280001B0C43800BD00BE00B6010BD0A6010BDFF
:1052900042880A3292B242809A4201D301220270BD
:1052A0004088086010BD0000342C0140A0000020A0
:1052B00008B5FEF7EDFE0B481023002100901A46BA
:1052C0000846FFF703F9082307A214210020FFF77F
:1052D0008BF901B00823282105A200205DF804EB1A
:1052E000FFF782B94A9C0008BFAAB9D8B5C600002A
:1052F000BAF4CEFCB5C6000010B5FEF76BFC2C4C22
:10530000012804D002280AD003280FD027E0607CAF
:10531000401CC0B26074022821D9002002E0607CE9
:1053200010B1401E60741AE00220FBE7607C20B1DF
:10533000E17C49B10021E174A074FEF7A9FE607C14
:1053400020B1012805D00AE00121F4E70120E07036
:1053500005E0E07C012800D008B9FFF781FFA07CC0
:10536000022805D1E07C012802D10220FFF778FF56
:10537000607C78B1012813D0022817D1FFF798FF7D
:105380001023302228210020FFF734F8BDE8104018
:10539000FFF798B9FFF78CFF10231A460021F2E7B8
:1053A000FFF786FF102330221421ECE710BD000028
:1053B00030000020FDF764F9FFF7DAFAFEF748FC49
:1053C000FEF7D6FCFEF712FDFEF774FDFEF7A6FD14
:1053D000FEF7AEFC0C48FDF74BFF0C48FDF748FF0D
:1053E00000210B48FEF734F9FFF7C8FEFEF797FFE0
:1053F000FEF74EFE00F096FA012251030548FCF735
:1054000072FEFFF7D7FEFEE7D80100202002002041
:10541000900100200010014010B586B00021AE20A0
:10542000FFF74EFA234C09216070AE20FFF748FACF
:10543000A0700421AE20FFF743FA00F01F002061A6
:105440000621AE20FFF73CFA00F01F006061217CCE
:10545000081A10F01F004FF00001E060217026D004
:105460006422062103A88DE8070001230722AE214C
:105470001148FCF707FF9DF80C009DF80D10000483
:1054800040EA01209DF80E100843C0F31100A0600F
:105490009DF80F009DF81010000440EA01209DF8CF
:1054A00011100843C0F3110060600120207006B0A5
:1054B00010BD0000A8000020280100200B4800219A
:1054C000416381634175C163016441648175C17544
:1054D00041840176417681768164C1648184C1769C
:1054E0000177C184016541657047000030000020EC
:1054F0002DE9F0470024494E214623462246204606
:1055000006F5167756F820502C4457F82050401CCA
:1055100080B229449628F5D39625B4FBF5F4B1FB67
:10552000F5F1002056F820C0A44502D9ACEB040CDC
:1055300001E0A4EB0C0C634457F820C08C4502D961
:10554000ACEB010C01E0A1EB0C0C401C80B26244FE
:105550009628E7D3B3FBF5F7B2FBF5F6304D4FF0E5
:105560000008C5E9147624B119B1052F01D3052E21
:1055700003D285F81780BDE8F087084602F0CAFB21
:105580008146304602F0C6FB494602F0ADFA0646B7
:10559000204602F0BFFB0446384602F0BBFB214622
:1055A00002F0A2FA314602F09FFA1E4C064621464E
:1055B00002F0C4FB4FF07C57394602F033FA02F098
:1055C00071FBE8841849304602F0B8FB174902F035
:1055D00081FC1749A04201DD204602E0884200DA42
:1055E0000846697E032902D2491C6976C1E7E97D34
:1055F000002939460AD002F015FA02F053FBA97DC2
:10560000C0B201EB41010844800803E002F00AFA4D
:1056100002F048FBA8750120E875ACE78006002081
:10562000300000200000C842000050410000DC4271
:1056300000008C4210B500220421AE20FFF77CF957
:1056400000220521AE20FFF777F900220621BDE8F0
:105650001040AE20FFF770B92DE9F041FCF748FD8E
:105660003949097800292ED038490B684CF250315D
:105670008B4203D2BDE8F041FFF720BF344901253A
:105680008D764A6B02B94B634A6BC2EB421404EB52
:10569000821203EB83042244642492FBF4F24A63F3
:1056A0009A1A8A6301D4144600E05442CE6CC6EBC9
:1056B000061634442609CE648C8C322C05D2641C28
:1056C0008C848A64C863BDE8F0818C6C002C23DC78
:1056D000002A21DD322E1FD9CC6B40F2A367041BB8
:1056E000A4F22D160C64BE4214D24EF66026B6FB10
:1056F000F4F4A4F12D06732E0CD8CE7E761CF7B2EE
:10570000CF764E6C1EB1C6EBC6063444E4084C643A
:1057100007B10D77C8634D750E488A640E4C026858
:10572000488C44F8202004F5167242F82030401CC2
:1057300080B248849628C6D3002048840D76BDE800
:10574000F041FFF7D5BE0000A8000020AC0000200B
:1057500030000020B000002080060020FF21AE2095
:10576000FFF7AEB810B5642440220921AE20FFF740
:10577000E3F804E00120FCF7AFFB641EA4B20921AA
:10578000AE20FFF79DF8400601D5002CF2D1002194
:10579000AE20FFF795F80121AE20FFF791F8FFF753
:1057A00049FF4F220821AE20FFF7C6F827220A2121
:1057B000AE20FFF7C1F83F220C21AE20FFF7BCF866
:1057C0001F220D21AE20FFF7B7F803220921AE20DA
:1057D000FFF7B2F8BDE810401420FCF77DBB802233
:1057E0000921AE20FFF7A8B8F8B5324C0125A07FFB
:1057F00028B9FFF7B7FFFFF761FEA570A577FFF7A0
:10580000ADFFFEF7E7F90646FEF742FC002108234C
:1058100029A20846FEF7E8FE2A48102300901A46FF
:1058200030210020FEF752FEA07E48B1606CA0B18E
:10583000009025A3082212210020FEF7C5FD12E0EA
:10584000082325A214211820FEF7CEFE082325A246
:1058500028211820FEF7C8FE1EE0082324A21221EA
:105860000020FEF7C1FEE07D40B1A07D009024A3A2
:10587000082224210020FEF7A7FD05E0082324A22A
:1058800024210020FEF7B0FEE08C009023A3062226
:1058900034211820FEF798FDFEF714FF032E07D1E0
:1058A000E5700020A070A077BDE8F840FFF797BF33
:1058B000F8BD0000300000204D4158333031303207
:1058C000000000004A9C0008485220203A2530334E
:1058D0006C752042504D00005075742066696E67EB
:1058E0006572000057616974696E672E2E2E000084
:1058F000485220203A2D2D2D2042504D000000000E
:1059000053704F323A2530336420252500000000C3
:1059100053704F323A2D2D2D20250000523A25305C
:105920003364000010B5FEF739FB00F011F9BDE853
:105930001040FFF717BF000010B5FEF74BF901212B
:105940002A4B012804D002280CD0032825D013E0CC
:105950005972987A401CC0B29872597708280BD3B4
:10596000997209E0597202205877987A012801D873
:10597000072000E0401E9872997A587F012926D0AE
:1059800002282ED001282FD1481E891EC2B2C9B2CA
:10599000587ABDE81040FFF703BC987A012808D078
:1059A000022808D0032808D0042808D0052808D0E9
:1059B00009E0002006E0042004E0052002E00620C3
:1059C00000E00920D870BDE81040FEF761BB022856
:1059D00004D0012808D100221146D9E70022012174
:1059E000D6E7481EC2B2D3E710BD00003000002049
:1059F000F8B5FEF74DFB38482C2300901A460A21D3
:105A00002A20FEF763FD354C002130226079A3790E
:105A100098420AD2257AE679AD1B15F0FF0525726A
:105A200003D1401C607161722272C0B298420AD9DF
:105A3000237AE5792B44DBB22372602B03D1401E1D
:105A4000607161722272C0B2FEF79DFA244D20236C
:105A500005EBC01000901A461021207AFEF736FDA3
:105A60006079401EFEF78FFA05EBC0100090207A97
:105A700020231A4610213038FEF728FD6079801E59
:105A8000FEF781FA05EBC0100090207A20231A4619
:105A900010216038FEF71AFD6079401CFEF773FA9A
:105AA00005EBC0100090207A20231A4610213030D8
:105AB000FEF70CFD6079801CFEF765FA05EBC0105F
:105AC0000090207A20231A4610216030FEF7FEFC59
:105AD000BDE8F840FEF7F6BDEA9F00083000002060
